{"abi":[{"type":"function","name":"AddressEncodePacked","inputs":[],"outputs":[{"name":"","type":"bytes","internalType":"bytes"}],"stateMutability":"pure"},{"type":"function","name":"BooleanEncodePacked","inputs":[],"outputs":[{"name":"","type":"bytes","internalType":"bytes"}],"stateMutability":"pure"},{"type":"function","name":"BytesArrayEncodePacked","inputs":[],"outputs":[{"name":"","type":"bytes","internalType":"bytes"}],"stateMutability":"pure"},{"type":"function","name":"BytesEncoded","inputs":[],"outputs":[{"name":"","type":"bytes","internalType":"bytes"}],"stateMutability":"pure"},{"type":"function","name":"DynamicBytesEncodePacked","inputs":[{"name":"_data","type":"bytes","internalType":"bytes"}],"outputs":[{"name":"","type":"bytes","internalType":"bytes"}],"stateMutability":"pure"},{"type":"function","name":"StaticMixEncodePacked","inputs":[],"outputs":[{"name":"","type":"bytes","internalType":"bytes"}],"stateMutability":"pure"},{"type":"function","name":"StringEncodePacked","inputs":[],"outputs":[{"name":"","type":"bytes","internalType":"bytes"}],"stateMutability":"pure"},{"type":"function","name":"UintsArrayEncodePacked","inputs":[],"outputs":[{"name":"","type":"bytes","internalType":"bytes"}],"stateMutability":"pure"},{"type":"function","name":"UintsEncodePacked","inputs":[],"outputs":[{"name":"","type":"bytes","internalType":"bytes"}],"stateMutability":"pure"}],"bytecode":{"object":"0x6080604052348015600e575f5ffd5b50610ba98061001c5f395ff3fe608060405234801561000f575f5ffd5b5060043610610091575f3560e01c8063c488949211610064578063c48894921461010d578063cbfbd6171461012b578063d248908e1461015b578063d9a48bbb14610179578063f2b866c71461019757610091565b80636fbf751e146100955780637fa87b3c146100b35780638eaf3cdc146100d1578063becca7d8146100ef575b5f5ffd5b61009d6101b5565b6040516100aa919061057f565b60405180910390f35b6100bb6101f0565b6040516100c8919061057f565b60405180910390f35b6100d9610239565b6040516100e6919061057f565b60405180910390f35b6100f761026f565b604051610104919061057f565b60405180910390f35b610115610297565b604051610122919061057f565b60405180910390f35b610145600480360381019061014091906106dc565b61034f565b604051610152919061057f565b60405180910390f35b610163610378565b604051610170919061057f565b60405180910390f35b6101816104bc565b60405161018e919061057f565b60405180910390f35b61019f6104ea565b6040516101ac919061057f565b60405180910390f35b606073d6b0794b7aea7190f1831a40393e599cc0864eb36040516020016101dc9190610798565b604051602081830303815290604052905090565b606073d6b0794b7aea7190f1831a40393e599cc0864eb36201d9e063abcdef1260e01b60405160200161022593929190610826565b604051602081830303815290604052905090565b60606e291bf5139ecbf97aeba956631f850360405160200161025b9190610862565b604051602081830303815290604052905090565b6060600160405160200161028391906108cc565b604051602081830303815290604052905090565b60605f600267ffffffffffffffff8111156102b5576102b46105b8565b5b6040519080825280602002602001820160405280156102e35781602001602082028036833780820191505090505b509050608f815f815181106102fb576102fa6108e6565b5b60200260200101818152505060648160018151811061031d5761031c6108e6565b5b6020026020010181815250508060405160200161033a91906109c4565b60405160208183030381529060405291505090565b6060816040516020016103629190610a14565b6040516020818303038152906040529050919050565b60605f600267ffffffffffffffff811115610396576103956105b8565b5b6040519080825280602002602001820160405280156103c45781602001602082028036833780820191505090505b50905063123456e160e01b815f815181106103e2576103e16108e6565b5b60200260200101907bffffffffffffffffffffffffffffffffffffffffffffffffffffffff191690817bffffffffffffffffffffffffffffffffffffffffffffffffffffffff19168152505063a12e3f8f60e01b8160018151811061044a576104496108e6565b5b60200260200101907bffffffffffffffffffffffffffffffffffffffffffffffffffffffff191690817bffffffffffffffffffffffffffffffffffffffffffffffffffffffff191681525050806040516020016104a79190610adb565b60405160208183030381529060405291505090565b606063abcdef1260e01b6040516020016104d69190610af1565b604051602081830303815290604052905090565b60606040516020016104fb90610b5f565b604051602081830303815290604052905090565b5f81519050919050565b5f82825260208201905092915050565b8281835e5f83830152505050565b5f601f19601f8301169050919050565b5f6105518261050f565b61055b8185610519565b935061056b818560208601610529565b61057481610537565b840191505092915050565b5f6020820190508181035f8301526105978184610547565b905092915050565b5f604051905090565b5f5ffd5b5f5ffd5b5f5ffd5b5f5ffd5b7f4e487b71000000000000000000000000000000000000000000000000000000005f52604160045260245ffd5b6105ee82610537565b810181811067ffffffffffffffff8211171561060d5761060c6105b8565b5b80604052505050565b5f61061f61059f565b905061062b82826105e5565b919050565b5f67ffffffffffffffff82111561064a576106496105b8565b5b61065382610537565b9050602081019050919050565b828183375f83830152505050565b5f61068061067b84610630565b610616565b90508281526020810184848401111561069c5761069b6105b4565b5b6106a7848285610660565b509392505050565b5f82601f8301126106c3576106c26105b0565b5b81356106d384826020860161066e565b91505092915050565b5f602082840312156106f1576106f06105a8565b5b5f82013567ffffffffffffffff81111561070e5761070d6105ac565b5b61071a848285016106af565b91505092915050565b5f73ffffffffffffffffffffffffffffffffffffffff82169050919050565b5f61074c82610723565b9050919050565b5f8160601b9050919050565b5f61076982610753565b9050919050565b5f61077a8261075f565b9050919050565b61079261078d82610742565b610770565b82525050565b5f6107a38284610781565b60148201915081905092915050565b5f819050919050565b5f819050919050565b6107d56107d0826107b2565b6107bb565b82525050565b5f7fffffffff0000000000000000000000000000000000000000000000000000000082169050919050565b5f819050919050565b61082061081b826107db565b610806565b82525050565b5f6108318286610781565b60148201915061084182856107c4565b602082019150610851828461080f565b600482019150819050949350505050565b5f61086d82846107c4565b60208201915081905092915050565b5f8115159050919050565b5f8160f81b9050919050565b5f61089d82610887565b9050919050565b5f6108ae82610893565b9050919050565b6108c66108c18261087c565b6108a4565b82525050565b5f6108d782846108b5565b60018201915081905092915050565b7f4e487b71000000000000000000000000000000000000000000000000000000005f52603260045260245ffd5b5f81519050919050565b5f81905092915050565b5f819050602082019050919050565b61093f816107b2565b82525050565b5f6109508383610936565b60208301905092915050565b5f602082019050919050565b5f61097282610913565b61097c818561091d565b935061098783610927565b805f5b838110156109b757815161099e8882610945565b97506109a98361095c565b92505060018101905061098a565b5085935050505092915050565b5f6109cf8284610968565b915081905092915050565b5f81905092915050565b5f6109ee8261050f565b6109f881856109da565b9350610a08818560208601610529565b80840191505092915050565b5f610a1f82846109e4565b915081905092915050565b5f81519050919050565b5f81905092915050565b5f819050602082019050919050565b610a56816107db565b82525050565b5f610a678383610a4d565b60208301905092915050565b5f602082019050919050565b5f610a8982610a2a565b610a938185610a34565b9350610a9e83610a3e565b805f5b83811015610ace578151610ab58882610a5c565b9750610ac083610a73565b925050600181019050610aa1565b5085935050505092915050565b5f610ae68284610a7f565b915081905092915050565b5f610afc828461080f565b60048201915081905092915050565b5f81905092915050565b7f59554c00000000000000000000000000000000000000000000000000000000005f82015250565b5f610b49600383610b0b565b9150610b5482610b15565b600382019050919050565b5f610b6982610b3d565b915081905091905056fea264697066735822122010cbe985e0f4d3c066a0488aa35b042a9bc16743ef6d856f7f0a26ac601f068264736f6c634300081e0033","linkReferences":{}},"methodIdentifiers":{"AddressEncodePacked()":"6fbf751e","BooleanEncodePacked()":"becca7d8","BytesArrayEncodePacked()":"d248908e","BytesEncoded()":"d9a48bbb","DynamicBytesEncodePacked(bytes)":"cbfbd617","StaticMixEncodePacked()":"7fa87b3c","StringEncodePacked()":"f2b866c7","UintsArrayEncodePacked()":"c4889492","UintsEncodePacked()":"8eaf3cdc"},"id":20}