{"abi":[{"type":"function","name":"C","inputs":[],"outputs":[{"name":"","type":"uint128","internalType":"uint128"}],"stateMutability":"view"},{"type":"function","name":"D","inputs":[],"outputs":[{"name":"","type":"uint104","internalType":"uint104"}],"stateMutability":"view"},{"type":"function","name":"E","inputs":[],"outputs":[{"name":"","type":"uint16","internalType":"uint16"}],"stateMutability":"view"},{"type":"function","name":"F","inputs":[],"outputs":[{"name":"","type":"uint8","internalType":"uint8"}],"stateMutability":"view"},{"type":"function","name":"Mask","inputs":[],"outputs":[{"name":"e","type":"bytes32","internalType":"bytes32"},{"name":"masked","type":"uint256","internalType":"uint256"}],"stateMutability":"view"},{"type":"function","name":"SlotData","inputs":[],"outputs":[{"name":"slotValue","type":"bytes32","internalType":"bytes32"}],"stateMutability":"view"},{"type":"function","name":"getOffSet","inputs":[],"outputs":[{"name":"offset","type":"uint8","internalType":"uint8"}],"stateMutability":"pure"},{"type":"function","name":"writeE","inputs":[{"name":"_newE","type":"uint16","internalType":"uint16"}],"outputs":[{"name":"value","type":"bytes32","internalType":"bytes32"},{"name":"clearedE","type":"bytes32","internalType":"bytes32"},{"name":"EOffset","type":"uint8","internalType":"uint8"},{"name":"shifted","type":"bytes32","internalType":"bytes32"},{"name":"newValue","type":"bytes32","internalType":"bytes32"}],"stateMutability":"nonpayable"}],"bytecode":{"object":"0x608060405260045f5f6101000a8154816fffffffffffffffffffffffffffffffff02191690836fffffffffffffffffffffffffffffffff16021790555060065f60106101000a8154816cffffffffffffffffffffffffff02191690836cffffffffffffffffffffffffff16021790555060085f601d6101000a81548161ffff021916908361ffff16021790555060015f601f6101000a81548160ff021916908360ff16021790555034801560b1575f5ffd5b506104a5806100bf5f395ff3fe608060405234801561000f575f5ffd5b5060043610610086575f3560e01c80638a9e63ec116100595780638a9e63ec1461011857806392bbf6e814610136578063a5976b6214610154578063e2c277ba1461017257610086565b80630f529ba21461008a57806328811f59146100a8578063298c6e40146100c657806383dfe5fd146100fa575b5f5ffd5b610092610191565b60405161009f9190610290565b60405180910390f35b6100b06101af565b6040516100bd91906102c4565b60405180910390f35b6100e060048036038101906100db9190610318565b6101c1565b6040516100f195949392919061035b565b60405180910390f35b61010261020d565b60405161010f91906103d6565b60405180910390f35b61012061022d565b60405161012d91906102c4565b60405180910390f35b61013e610235565b60405161014b91906103fe565b60405180910390f35b61015c610248565b6040516101699190610417565b60405180910390f35b61017a610250565b604051610188929190610448565b60405180910390f35b5f60109054906101000a90046cffffffffffffffffffffffffff1681565b5f601f9054906101000a900460ff1681565b5f5f5f5f5f5f549450847fff0000ffffffffffffffffffffffffffffffffffffffffffffffffffffffffff169350601d9250856008601d021b91508382179050805f5591939590929450565b5f5f9054906101000a90046fffffffffffffffffffffffffffffffff1681565b5f601d905090565b5f601d9054906101000a900461ffff1681565b5f5f54905090565b5f5f5f54806008601d021c92508261ffff169150509091565b5f6cffffffffffffffffffffffffff82169050919050565b61028a81610269565b82525050565b5f6020820190506102a35f830184610281565b92915050565b5f60ff82169050919050565b6102be816102a9565b82525050565b5f6020820190506102d75f8301846102b5565b92915050565b5f5ffd5b5f61ffff82169050919050565b6102f7816102e1565b8114610301575f5ffd5b50565b5f81359050610312816102ee565b92915050565b5f6020828403121561032d5761032c6102dd565b5b5f61033a84828501610304565b91505092915050565b5f819050919050565b61035581610343565b82525050565b5f60a08201905061036e5f83018861034c565b61037b602083018761034c565b61038860408301866102b5565b610395606083018561034c565b6103a2608083018461034c565b9695505050505050565b5f6fffffffffffffffffffffffffffffffff82169050919050565b6103d0816103ac565b82525050565b5f6020820190506103e95f8301846103c7565b92915050565b6103f8816102e1565b82525050565b5f6020820190506104115f8301846103ef565b92915050565b5f60208201905061042a5f83018461034c565b92915050565b5f819050919050565b61044281610430565b82525050565b5f60408201905061045b5f83018561034c565b6104686020830184610439565b939250505056fea26469706673582212200e3d07b01c8bc39889f93fde835c822c120b3d8f92c280122e4fa1c472df051164736f6c634300081e0033","linkReferences":{}},"methodIdentifiers":{"C()":"83dfe5fd","D()":"0f529ba2","E()":"92bbf6e8","F()":"28811f59","Mask()":"e2c277ba","SlotData()":"a5976b62","getOffSet()":"8a9e63ec","writeE(uint16)":"298c6e40"},"id":19}