{"abi":[{"type":"function","name":"C","inputs":[],"outputs":[{"name":"","type":"uint128","internalType":"uint128"}],"stateMutability":"view"},{"type":"function","name":"D","inputs":[],"outputs":[{"name":"","type":"uint104","internalType":"uint104"}],"stateMutability":"view"},{"type":"function","name":"E","inputs":[],"outputs":[{"name":"","type":"uint16","internalType":"uint16"}],"stateMutability":"view"},{"type":"function","name":"F","inputs":[],"outputs":[{"name":"","type":"uint8","internalType":"uint8"}],"stateMutability":"view"},{"type":"function","name":"SlotData","inputs":[],"outputs":[{"name":"slotValue","type":"bytes32","internalType":"bytes32"}],"stateMutability":"nonpayable"},{"type":"function","name":"getOffSet","inputs":[],"outputs":[{"name":"offset","type":"uint8","internalType":"uint8"}],"stateMutability":"pure"},{"type":"function","name":"startShifting","inputs":[],"outputs":[{"name":"e","type":"bytes32","internalType":"bytes32"}],"stateMutability":"nonpayable"}],"bytecode":{"object":"0x608060405260045f5f6101000a8154816fffffffffffffffffffffffffffffffff02191690836fffffffffffffffffffffffffffffffff16021790555060065f60106101000a8154816cffffffffffffffffffffffffff02191690836cffffffffffffffffffffffffff16021790555060085f601d6101000a81548161ffff021916908361ffff16021790555060015f601f6101000a81548160ff021916908360ff16021790555034801560b1575f5ffd5b50610327806100bf5f395ff3fe608060405234801561000f575f5ffd5b506004361061007b575f3560e01c806383dfe5fd1161005957806383dfe5fd146100d95780638a9e63ec146100f757806392bbf6e814610115578063a5976b62146101335761007b565b80630f529ba21461007f57806328811f591461009d5780633bb3532c146100bb575b5f5ffd5b610087610151565b60405161009491906101fb565b60405180910390f35b6100a561016f565b6040516100b2919061022f565b60405180910390f35b6100c3610181565b6040516100d09190610260565b60405180910390f35b6100e1610191565b6040516100ee91906102a3565b60405180910390f35b6100ff6101b1565b60405161010c919061022f565b60405180910390f35b61011d6101b9565b60405161012a91906102d8565b60405180910390f35b61013b6101cc565b6040516101489190610260565b60405180910390f35b5f60109054906101000a90046cffffffffffffffffffffffffff1681565b5f601f9054906101000a900460ff1681565b5f5f54806008601d021c91505090565b5f5f9054906101000a90046fffffffffffffffffffffffffffffffff1681565b5f601d905090565b5f601d9054906101000a900461ffff1681565b5f5f54905090565b5f6cffffffffffffffffffffffffff82169050919050565b6101f5816101d4565b82525050565b5f60208201905061020e5f8301846101ec565b92915050565b5f60ff82169050919050565b61022981610214565b82525050565b5f6020820190506102425f830184610220565b92915050565b5f819050919050565b61025a81610248565b82525050565b5f6020820190506102735f830184610251565b92915050565b5f6fffffffffffffffffffffffffffffffff82169050919050565b61029d81610279565b82525050565b5f6020820190506102b65f830184610294565b92915050565b5f61ffff82169050919050565b6102d2816102bc565b82525050565b5f6020820190506102eb5f8301846102c9565b9291505056fea2646970667358221220506649dec582ec9c31c750b5219cbc269076ce3164b52ea5b7c8fbeff6186f3f64736f6c634300081e0033","linkReferences":{}},"methodIdentifiers":{"C()":"83dfe5fd","D()":"0f529ba2","E()":"92bbf6e8","F()":"28811f59","SlotData()":"a5976b62","getOffSet()":"8a9e63ec","startShifting()":"3bb3532c"},"id":19}