{"abi":[{"type":"function","name":"EnodeSignature","inputs":[],"outputs":[{"name":"","type":"bytes","internalType":"bytes"}],"stateMutability":"pure"},{"type":"function","name":"execute","inputs":[{"name":"target","type":"address","internalType":"address"},{"name":"actionData","type":"bytes","internalType":"bytes"}],"outputs":[],"stateMutability":"pure"}],"bytecode":{"object":"0x6080604052348015600e575f5ffd5b5061035a8061001c5f395ff3fe608060405234801561000f575f5ffd5b5060043610610034575f3560e01c80631cff79cd146100385780636214719a14610054575b5f5ffd5b610052600480360381019061004d91906101d0565b610072565b005b61005c610077565b604051610069919061029d565b60405180910390f35b505050565b6060600560405160240161008b919061030b565b6040516020818303038152906040527f2fbebd38000000000000000000000000000000000000000000000000000000007bffffffffffffffffffffffffffffffffffffffffffffffffffffffff19166020820180517bffffffffffffffffffffffffffffffffffffffffffffffffffffffff8381831617835250505050905090565b5f5ffd5b5f5ffd5b5f73ffffffffffffffffffffffffffffffffffffffff82169050919050565b5f61013e82610115565b9050919050565b61014e81610134565b8114610158575f5ffd5b50565b5f8135905061016981610145565b92915050565b5f5ffd5b5f5ffd5b5f5ffd5b5f5f83601f8401126101905761018f61016f565b5b8235905067ffffffffffffffff8111156101ad576101ac610173565b5b6020830191508360018202830111156101c9576101c8610177565b5b9250929050565b5f5f5f604084860312156101e7576101e661010d565b5b5f6101f48682870161015b565b935050602084013567ffffffffffffffff81111561021557610214610111565b5b6102218682870161017b565b92509250509250925092565b5f81519050919050565b5f82825260208201905092915050565b8281835e5f83830152505050565b5f601f19601f8301169050919050565b5f61026f8261022d565b6102798185610237565b9350610289818560208601610247565b61029281610255565b840191505092915050565b5f6020820190508181035f8301526102b58184610265565b905092915050565b5f819050919050565b5f60ff82169050919050565b5f819050919050565b5f6102f56102f06102eb846102bd565b6102d2565b6102c6565b9050919050565b610305816102db565b82525050565b5f60208201905061031e5f8301846102fc565b9291505056fea264697066735822122086a2cb8e5efa6b04e95b453538ab491edf0c7ec76418ad92023dd513b2573dfa64736f6c634300081e0033","linkReferences":{}},"methodIdentifiers":{"EnodeSignature()":"6214719a","execute(address,bytes)":"1cff79cd"},"id":21}