{"abi":[{"type":"function","name":"EnodeSignature","inputs":[],"outputs":[{"name":"","type":"bytes","internalType":"bytes"}],"stateMutability":"pure"}],"bytecode":{"object":"0x6080604052348015600e575f5ffd5b5061020e8061001c5f395ff3fe608060405234801561000f575f5ffd5b5060043610610029575f3560e01c80636214719a1461002d575b5f5ffd5b61003561004b565b6040516100429190610151565b60405180910390f35b6060600560405160240161005f91906101bf565b6040516020818303038152906040527f2fbebd38000000000000000000000000000000000000000000000000000000007bffffffffffffffffffffffffffffffffffffffffffffffffffffffff19166020820180517bffffffffffffffffffffffffffffffffffffffffffffffffffffffff8381831617835250505050905090565b5f81519050919050565b5f82825260208201905092915050565b8281835e5f83830152505050565b5f601f19601f8301169050919050565b5f610123826100e1565b61012d81856100eb565b935061013d8185602086016100fb565b61014681610109565b840191505092915050565b5f6020820190508181035f8301526101698184610119565b905092915050565b5f819050919050565b5f60ff82169050919050565b5f819050919050565b5f6101a96101a461019f84610171565b610186565b61017a565b9050919050565b6101b98161018f565b82525050565b5f6020820190506101d25f8301846101b0565b9291505056fea2646970667358221220f3666575e69d1134023fe8cb9d421fd688f781cf0c47fc958a199dda31a8d1b664736f6c634300081e0033","linkReferences":{}},"methodIdentifiers":{"EnodeSignature()":"6214719a"},"id":21}