{"abi":[{"type":"function","name":"EncodeDynamicSignature","inputs":[{"name":"_address","type":"address","internalType":"address"},{"name":"_data","type":"bytes","internalType":"bytes"}],"outputs":[{"name":"","type":"bytes","internalType":"bytes"}],"stateMutability":"pure"},{"type":"function","name":"EnodeSignature","inputs":[],"outputs":[{"name":"","type":"bytes","internalType":"bytes"}],"stateMutability":"pure"},{"type":"function","name":"execute","inputs":[{"name":"target","type":"address","internalType":"address"},{"name":"actionData","type":"bytes","internalType":"bytes"}],"outputs":[],"stateMutability":"pure"}],"bytecode":{"object":"0x6080604052348015600e575f5ffd5b5061039e8061001c5f395ff3fe608060405234801561000f575f5ffd5b506004361061003f575f3560e01c80631cff79cd146100435780636214719a1461005f5780636c969b241461007d575b5f5ffd5b61005d60048036038101906100589190610214565b6100ad565b005b6100676100b2565b60405161007491906102e1565b60405180910390f35b61009760048036038101906100929190610214565b610148565b6040516100a491906102e1565b60405180910390f35b505050565b606060056040516024016100c6919061034f565b6040516020818303038152906040527f2fbebd38000000000000000000000000000000000000000000000000000000007bffffffffffffffffffffffffffffffffffffffffffffffffffffffff19166020820180517bffffffffffffffffffffffffffffffffffffffffffffffffffffffff8381831617835250505050905090565b60609392505050565b5f5ffd5b5f5ffd5b5f73ffffffffffffffffffffffffffffffffffffffff82169050919050565b5f61018282610159565b9050919050565b61019281610178565b811461019c575f5ffd5b50565b5f813590506101ad81610189565b92915050565b5f5ffd5b5f5ffd5b5f5ffd5b5f5f83601f8401126101d4576101d36101b3565b5b8235905067ffffffffffffffff8111156101f1576101f06101b7565b5b60208301915083600182028301111561020d5761020c6101bb565b5b9250929050565b5f5f5f6040848603121561022b5761022a610151565b5b5f6102388682870161019f565b935050602084013567ffffffffffffffff81111561025957610258610155565b5b610265868287016101bf565b92509250509250925092565b5f81519050919050565b5f82825260208201905092915050565b8281835e5f83830152505050565b5f601f19601f8301169050919050565b5f6102b382610271565b6102bd818561027b565b93506102cd81856020860161028b565b6102d681610299565b840191505092915050565b5f6020820190508181035f8301526102f981846102a9565b905092915050565b5f819050919050565b5f60ff82169050919050565b5f819050919050565b5f61033961033461032f84610301565b610316565b61030a565b9050919050565b6103498161031f565b82525050565b5f6020820190506103625f830184610340565b9291505056fea26469706673582212204c606eb3a27f11674ab137bc194b27148fd59d1e6359eca888adcebbc686896d64736f6c634300081e0033","linkReferences":{}},"methodIdentifiers":{"EncodeDynamicSignature(address,bytes)":"6c969b24","EnodeSignature()":"6214719a","execute(address,bytes)":"1cff79cd"},"id":27}