{"abi":[{"type":"function","name":"AddressEncoded","inputs":[],"outputs":[{"name":"","type":"bytes","internalType":"bytes"}],"stateMutability":"pure"},{"type":"function","name":"BooleanEncoded","inputs":[],"outputs":[{"name":"","type":"bytes","internalType":"bytes"}],"stateMutability":"pure"},{"type":"function","name":"BytesArrayEncode","inputs":[],"outputs":[{"name":"","type":"bytes","internalType":"bytes"}],"stateMutability":"pure"},{"type":"function","name":"BytesEncoded","inputs":[],"outputs":[{"name":"","type":"bytes","internalType":"bytes"}],"stateMutability":"pure"},{"type":"function","name":"DynamicBytesEncode","inputs":[{"name":"_data","type":"bytes","internalType":"bytes"}],"outputs":[{"name":"","type":"bytes","internalType":"bytes"}],"stateMutability":"pure"},{"type":"function","name":"StaticMixEncoded","inputs":[],"outputs":[{"name":"","type":"bytes","internalType":"bytes"}],"stateMutability":"pure"},{"type":"function","name":"StringArrayEncode","inputs":[],"outputs":[{"name":"","type":"bytes","internalType":"bytes"}],"stateMutability":"pure"},{"type":"function","name":"StringEncoded","inputs":[],"outputs":[{"name":"","type":"bytes","internalType":"bytes"}],"stateMutability":"pure"},{"type":"function","name":"StructEncode","inputs":[],"outputs":[{"name":"","type":"bytes","internalType":"bytes"}],"stateMutability":"pure"},{"type":"function","name":"UintsArrayEncode","inputs":[],"outputs":[{"name":"","type":"bytes","internalType":"bytes"}],"stateMutability":"pure"},{"type":"function","name":"UintsEncoded","inputs":[],"outputs":[{"name":"","type":"bytes","internalType":"bytes"}],"stateMutability":"pure"}],"bytecode":{"object":"0x6080604052348015600e575f5ffd5b50610d668061001c5f395ff3fe608060405234801561000f575f5ffd5b50600436106100a6575f3560e01c80638ed922661161006f5780638ed9226614610152578063911305ef1461017057806394f31c311461018e5780639fc5c80f146101ac578063d5ba3a61146101ca578063d9a48bbb146101e8576100a6565b8062bab7e4146100aa578063353f4140146100c85780634af8e9dc146100e6578063790a8c7f146101165780638a98192714610134575b5f5ffd5b6100b2610206565b6040516100bf9190610709565b60405180910390f35b6100d061024f565b6040516100dd9190610709565b60405180910390f35b61010060048036038101906100fb9190610866565b610277565b60405161010d9190610709565b60405180910390f35b61011e6102a0565b60405161012b9190610709565b60405180910390f35b61013c6103e4565b6040516101499190610709565b60405180910390f35b61015a61049c565b6040516101679190610709565b60405180910390f35b6101786104c1565b6040516101859190610709565b60405180910390f35b6101966105a5565b6040516101a39190610709565b60405180910390f35b6101b46105fa565b6040516101c19190610709565b60405180910390f35b6101d2610630565b6040516101df9190610709565b60405180910390f35b6101f061066b565b6040516101fd9190610709565b60405180910390f35b606073d6b0794b7aea7190f1831a40393e599cc0864eb36201d9e063abcdef1260e01b60405160200161023b93929190610996565b604051602081830303815290604052905090565b606060016040516020016102639190610a22565b604051602081830303815290604052905090565b60608160405160200161028a9190610a76565b6040516020818303038152906040529050919050565b60605f600267ffffffffffffffff8111156102be576102bd610742565b5b6040519080825280602002602001820160405280156102ec5781602001602082028036833780820191505090505b50905063123456e160e01b815f8151811061030a57610309610a8c565b5b60200260200101907bffffffffffffffffffffffffffffffffffffffffffffffffffffffff191690817bffffffffffffffffffffffffffffffffffffffffffffffffffffffff19168152505063a12e3f8f60e01b8160018151811061037257610371610a8c565b5b60200260200101907bffffffffffffffffffffffffffffffffffffffffffffffffffffffff191690817bffffffffffffffffffffffffffffffffffffffffffffffffffffffff191681525050806040516020016103cf9190610b6a565b60405160208183030381529060405291505090565b60605f600267ffffffffffffffff81111561040257610401610742565b5b6040519080825280602002602001820160405280156104305781602001602082028036833780820191505090505b509050608f815f8151811061044857610447610a8c565b5b60200260200101818152505060648160018151811061046a57610469610a8c565b5b602002602001018181525050806040516020016104879190610c31565b60405160208183030381529060405291505090565b60606040516020016104ad90610c9b565b604051602081830303815290604052905090565b60605f600267ffffffffffffffff8111156104df576104de610742565b5b60405190808252806020026020018201604052801561051257816020015b60608152602001906001900390816104fd5790505b509050604051806060016040528060338152602001610cfe60339139815f8151811061054157610540610a8c565b5b60200260200101819052506040518060400160405280601c81526020017f59657320736f6c6964697479206d61646520697420617765736f6d65000000008152508160018151811061059657610595610a8c565b5b60200260200101819052505090565b60605f60405180604001604052806040518060400160405280600a81526020017f48656c6c6f2059756c2100000000000000000000000000000000000000000000815250815260200161046281525090505090565b60606e291bf5139ecbf97aeba956631f850360405160200161061c9190610caf565b604051602081830303815290604052905090565b606073d6b0794b7aea7190f1831a40393e599cc0864eb36040516020016106579190610cc9565b604051602081830303815290604052905090565b606063abcdef1260e01b6040516020016106859190610ce3565b604051602081830303815290604052905090565b5f81519050919050565b5f82825260208201905092915050565b8281835e5f83830152505050565b5f601f19601f8301169050919050565b5f6106db82610699565b6106e581856106a3565b93506106f58185602086016106b3565b6106fe816106c1565b840191505092915050565b5f6020820190508181035f83015261072181846106d1565b905092915050565b5f604051905090565b5f5ffd5b5f5ffd5b5f5ffd5b5f5ffd5b7f4e487b71000000000000000000000000000000000000000000000000000000005f52604160045260245ffd5b610778826106c1565b810181811067ffffffffffffffff8211171561079757610796610742565b5b80604052505050565b5f6107a9610729565b90506107b5828261076f565b919050565b5f67ffffffffffffffff8211156107d4576107d3610742565b5b6107dd826106c1565b9050602081019050919050565b828183375f83830152505050565b5f61080a610805846107ba565b6107a0565b9050828152602081018484840111156108265761082561073e565b5b6108318482856107ea565b509392505050565b5f82601f83011261084d5761084c61073a565b5b813561085d8482602086016107f8565b91505092915050565b5f6020828403121561087b5761087a610732565b5b5f82013567ffffffffffffffff81111561089857610897610736565b5b6108a484828501610839565b91505092915050565b5f73ffffffffffffffffffffffffffffffffffffffff82169050919050565b5f6108d6826108ad565b9050919050565b5f8160601b9050919050565b5f6108f3826108dd565b9050919050565b5f610904826108e9565b9050919050565b61091c610917826108cc565b6108fa565b82525050565b5f819050919050565b5f819050919050565b61094561094082610922565b61092b565b82525050565b5f7fffffffff0000000000000000000000000000000000000000000000000000000082169050919050565b5f819050919050565b61099061098b8261094b565b610976565b82525050565b5f6109a1828661090b565b6014820191506109b18285610934565b6020820191506109c1828461097f565b600482019150819050949350505050565b5f8115159050919050565b5f8160f81b9050919050565b5f6109f3826109dd565b9050919050565b5f610a04826109e9565b9050919050565b610a1c610a17826109d2565b6109fa565b82525050565b5f610a2d8284610a0b565b60018201915081905092915050565b5f81905092915050565b5f610a5082610699565b610a5a8185610a3c565b9350610a6a8185602086016106b3565b80840191505092915050565b5f610a818284610a46565b915081905092915050565b7f4e487b71000000000000000000000000000000000000000000000000000000005f52603260045260245ffd5b5f81519050919050565b5f81905092915050565b5f819050602082019050919050565b610ae58161094b565b82525050565b5f610af68383610adc565b60208301905092915050565b5f602082019050919050565b5f610b1882610ab9565b610b228185610ac3565b9350610b2d83610acd565b805f5b83811015610b5d578151610b448882610aeb565b9750610b4f83610b02565b925050600181019050610b30565b5085935050505092915050565b5f610b758284610b0e565b915081905092915050565b5f81519050919050565b5f81905092915050565b5f819050602082019050919050565b610bac81610922565b82525050565b5f610bbd8383610ba3565b60208301905092915050565b5f602082019050919050565b5f610bdf82610b80565b610be98185610b8a565b9350610bf483610b94565b805f5b83811015610c24578151610c0b8882610bb2565b9750610c1683610bc9565b925050600181019050610bf7565b5085935050505092915050565b5f610c3c8284610bd5565b915081905092915050565b5f81905092915050565b7f59554c00000000000000000000000000000000000000000000000000000000005f82015250565b5f610c85600383610c47565b9150610c9082610c51565b600382019050919050565b5f610ca582610c79565b9150819050919050565b5f610cba8284610934565b60208201915081905092915050565b5f610cd4828461090b565b60148201915081905092915050565b5f610cee828461097f565b6004820191508190509291505056fe48656c6c6f2061726520796f7520656e6a6f79696e67207468652059554c2050726f6772616d6d696e67206c616e6775616765a26469706673582212206a2173e914789286b706d1c62c2a90d797b8978b4a156c51a8bdd3f3603fed6564736f6c634300081e0033","linkReferences":{}},"methodIdentifiers":{"AddressEncoded()":"d5ba3a61","BooleanEncoded()":"353f4140","BytesArrayEncode()":"790a8c7f","BytesEncoded()":"d9a48bbb","DynamicBytesEncode(bytes)":"4af8e9dc","StaticMixEncoded()":"00bab7e4","StringArrayEncode()":"911305ef","StringEncoded()":"8ed92266","StructEncode()":"94f31c31","UintsArrayEncode()":"8a981927","UintsEncoded()":"9fc5c80f"},"id":20}