{"abi":[{"type":"function","name":"A","inputs":[],"outputs":[{"name":"","type":"uint128","internalType":"uint128"}],"stateMutability":"view"},{"type":"function","name":"B","inputs":[],"outputs":[{"name":"","type":"uint104","internalType":"uint104"}],"stateMutability":"view"},{"type":"function","name":"C","inputs":[],"outputs":[{"name":"","type":"uint16","internalType":"uint16"}],"stateMutability":"view"},{"type":"function","name":"D","inputs":[],"outputs":[{"name":"","type":"uint8","internalType":"uint8"}],"stateMutability":"view"},{"type":"function","name":"YulStr","inputs":[],"outputs":[{"name":"slot","type":"bytes32","internalType":"bytes32"},{"name":"content","type":"bytes32","internalType":"bytes32"}],"stateMutability":"view"},{"type":"function","name":"dynamicMaskForUint","inputs":[{"name":"_symbol","type":"string","internalType":"string"},{"name":"_value","type":"uint256","internalType":"uint256"}],"outputs":[],"stateMutability":"nonpayable"},{"type":"function","name":"normalMask","inputs":[],"outputs":[{"name":"shifted","type":"bytes32","internalType":"bytes32"},{"name":"mask1","type":"bytes32","internalType":"bytes32"},{"name":"mask2","type":"bytes32","internalType":"bytes32"},{"name":"mask3","type":"bytes32","internalType":"bytes32"}],"stateMutability":"pure"},{"type":"function","name":"str","inputs":[],"outputs":[{"name":"","type":"string","internalType":"string"}],"stateMutability":"view"}],"bytecode":{"object":"0x60806040526103e85f5f6101000a8154816fffffffffffffffffffffffffffffffff02191690836fffffffffffffffffffffffffffffffff16021790555060185f60106101000a8154816cffffffffffffffffffffffffff02191690836cffffffffffffffffffffffffff16021790555060095f601d6101000a81548161ffff021916908361ffff16021790555060035f601f6101000a81548160ff021916908360ff1602179055506040518060400160405280600381526020017f59756c0000000000000000000000000000000000000000000000000000000000815250600190816100ec919061033b565b503480156100f8575f5ffd5b5061040a565b5f81519050919050565b7f4e487b71000000000000000000000000000000000000000000000000000000005f52604160045260245ffd5b7f4e487b71000000000000000000000000000000000000000000000000000000005f52602260045260245ffd5b5f600282049050600182168061017957607f821691505b60208210810361018c5761018b610135565b5b50919050565b5f819050815f5260205f209050919050565b5f6020601f8301049050919050565b5f82821b905092915050565b5f600883026101ee7fffffffffffffffffffffffffffffffffffffffffffffffffffffffffffffffff826101b3565b6101f886836101b3565b95508019841693508086168417925050509392505050565b5f819050919050565b5f819050919050565b5f61023c61023761023284610210565b610219565b610210565b9050919050565b5f819050919050565b61025583610222565b61026961026182610243565b8484546101bf565b825550505050565b5f5f905090565b610280610271565b61028b81848461024c565b505050565b5b818110156102ae576102a35f82610278565b600181019050610291565b5050565b601f8211156102f3576102c481610192565b6102cd846101a4565b810160208510156102dc578190505b6102f06102e8856101a4565b830182610290565b50505b505050565b5f82821c905092915050565b5f6103135f19846008026102f8565b1980831691505092915050565b5f61032b8383610304565b9150826002028217905092915050565b610344826100fe565b67ffffffffffffffff81111561035d5761035c610108565b5b6103678254610162565b6103728282856102b2565b5f60209050601f8311600181146103a3575f8415610391578287015190505b61039b8582610320565b865550610402565b601f1984166103b186610192565b5f5b828110156103d8578489015182556001820191506020850194506020810190506103b3565b868310156103f557848901516103f1601f891682610304565b8355505b6001600288020188555050505b505050505050565b610b9b806104175f395ff3fe608060405234801561000f575f5ffd5b5060043610610086575f3560e01c8063c15bae8411610059578063c15bae8414610103578063c473116314610121578063f446c1d014610142578063fe73c41e1461016057610086565b80630f529ba21461008a57806332e7c5bf146100a857806335c5a24c146100c657806383dfe5fd146100e5575b5f5ffd5b61009261017c565b60405161009f91906104c3565b60405180910390f35b6100b061018e565b6040516100bd9190610503565b60405180910390f35b6100ce6101ac565b6040516100dc929190610534565b60405180910390f35b6100ed6101bb565b6040516100fa9190610577565b60405180910390f35b61010b6101ce565b6040516101189190610600565b60405180910390f35b61012961025a565b6040516101399493929190610620565b60405180910390f35b61014a61028a565b604051610157919061068d565b60405180910390f35b61017a60048036038101906101759190610816565b6102aa565b005b5f601f9054906101000a900460ff1681565b5f60109054906101000a90046cffffffffffffffffffffffffff1681565b5f5f6001915060015490509091565b5f601d9054906101000a900461ffff1681565b600180546101db9061089d565b80601f01602080910402602001604051908101604052809291908181526020018280546102079061089d565b80156102525780601f1061022957610100808354040283529160200191610252565b820191905f5260205f20905b81548152906001019060200180831161023557829003601f168201915b505050505081565b5f5f5f5f600160101b935060018060101b03925060018060101b0360201b915060018060801b0319905090919293565b5f5f9054906101000a90046fffffffffffffffffffffffffffffffff1681565b5f5f5f5f6001865111806102be57505f8651145b156102fe576040517f08c379a00000000000000000000000000000000000000000000000000000000081526004016102f590610917565b60405180910390fd5b60405160200161030d90610989565b604051602081830303815290604052805190602001208660405160200161033491906109cd565b6040516020818303038152906040528051906020012003610357578493506104a0565b60405160200161036690610a2d565b604051602081830303815290604052805190602001208660405160200161038d91906109cd565b60405160208183030381529060405280519060200120036103b05784925061049f565b6040516020016103bf90610a8b565b60405160208183030381529060405280519060200120866040516020016103e691906109cd565b60405160208183030381529060405280519060200120036104095784915061049e565b60405160200161041890610ae9565b604051602081830303815290604052805190602001208660405160200161043f91906109cd565b60405160208183030381529060405280519060200120036104625784905061049d565b6040517f08c379a000000000000000000000000000000000000000000000000000000000815260040161049490610b47565b60405180910390fd5b5b5b5b505050505050565b5f60ff82169050919050565b6104bd816104a8565b82525050565b5f6020820190506104d65f8301846104b4565b92915050565b5f6cffffffffffffffffffffffffff82169050919050565b6104fd816104dc565b82525050565b5f6020820190506105165f8301846104f4565b92915050565b5f819050919050565b61052e8161051c565b82525050565b5f6040820190506105475f830185610525565b6105546020830184610525565b9392505050565b5f61ffff82169050919050565b6105718161055b565b82525050565b5f60208201905061058a5f830184610568565b92915050565b5f81519050919050565b5f82825260208201905092915050565b8281835e5f83830152505050565b5f601f19601f8301169050919050565b5f6105d282610590565b6105dc818561059a565b93506105ec8185602086016105aa565b6105f5816105b8565b840191505092915050565b5f6020820190508181035f83015261061881846105c8565b905092915050565b5f6080820190506106335f830187610525565b6106406020830186610525565b61064d6040830185610525565b61065a6060830184610525565b95945050505050565b5f6fffffffffffffffffffffffffffffffff82169050919050565b61068781610663565b82525050565b5f6020820190506106a05f83018461067e565b92915050565b5f604051905090565b5f5ffd5b5f5ffd5b5f5ffd5b5f5ffd5b7f4e487b71000000000000000000000000000000000000000000000000000000005f52604160045260245ffd5b6106f5826105b8565b810181811067ffffffffffffffff82111715610714576107136106bf565b5b80604052505050565b5f6107266106a6565b905061073282826106ec565b919050565b5f67ffffffffffffffff821115610751576107506106bf565b5b61075a826105b8565b9050602081019050919050565b828183375f83830152505050565b5f61078761078284610737565b61071d565b9050828152602081018484840111156107a3576107a26106bb565b5b6107ae848285610767565b509392505050565b5f82601f8301126107ca576107c96106b7565b5b81356107da848260208601610775565b91505092915050565b5f819050919050565b6107f5816107e3565b81146107ff575f5ffd5b50565b5f81359050610810816107ec565b92915050565b5f5f6040838503121561082c5761082b6106af565b5b5f83013567ffffffffffffffff811115610849576108486106b3565b5b610855858286016107b6565b925050602061086685828601610802565b9150509250929050565b7f4e487b71000000000000000000000000000000000000000000000000000000005f52602260045260245ffd5b5f60028204905060018216806108b457607f821691505b6020821081036108c7576108c6610870565b5b50919050565b7f4f6e792073696e676c652063686172616374657220697320616c6c6f776564005f82015250565b5f610901601f8361059a565b915061090c826108cd565b602082019050919050565b5f6020820190508181035f83015261092e816108f5565b9050919050565b5f81905092915050565b7f41000000000000000000000000000000000000000000000000000000000000005f82015250565b5f610973600183610935565b915061097e8261093f565b600182019050919050565b5f61099382610967565b9150819050919050565b5f6109a782610590565b6109b18185610935565b93506109c18185602086016105aa565b80840191505092915050565b5f6109d8828461099d565b915081905092915050565b7f42000000000000000000000000000000000000000000000000000000000000005f82015250565b5f610a17600183610935565b9150610a22826109e3565b600182019050919050565b5f610a3782610a0b565b9150819050919050565b7f43000000000000000000000000000000000000000000000000000000000000005f82015250565b5f610a75600183610935565b9150610a8082610a41565b600182019050919050565b5f610a9582610a69565b9150819050919050565b7f44000000000000000000000000000000000000000000000000000000000000005f82015250565b5f610ad3600183610935565b9150610ade82610a9f565b600182019050919050565b5f610af382610ac7565b9150819050919050565b7f446964276e74206d6174636800000000000000000000000000000000000000005f82015250565b5f610b31600c8361059a565b9150610b3c82610afd565b602082019050919050565b5f6020820190508181035f830152610b5e81610b25565b905091905056fea26469706673582212208b757add8290caf7ec908be6896c1492954b9f6cadaffd9fdcba0412a76fba7c64736f6c634300081e0033","linkReferences":{}},"methodIdentifiers":{"A()":"f446c1d0","B()":"32e7c5bf","C()":"83dfe5fd","D()":"0f529ba2","YulStr()":"35c5a24c","dynamicMaskForUint(string,uint256)":"fe73c41e","normalMask()":"c4731163","str()":"c15bae84"},"id":22}