{"abi":[{"type":"function","name":"normalMask","inputs":[],"outputs":[{"name":"shifted","type":"bytes32","internalType":"bytes32"},{"name":"mask1","type":"bytes32","internalType":"bytes32"},{"name":"mask2","type":"bytes32","internalType":"bytes32"},{"name":"mask3","type":"bytes32","internalType":"bytes32"},{"name":"Not1","type":"bytes32","internalType":"bytes32"},{"name":"Not2","type":"bytes32","internalType":"bytes32"}],"stateMutability":"pure"}],"bytecode":{"object":"0x6080604052348015600e575f5ffd5b506101258061001c5f395ff3fe6080604052348015600e575f5ffd5b50600436106026575f3560e01c8063c473116314602a575b5f5ffd5b60306049565b604051604096959493929190609c565b60405180910390f35b5f5f5f5f5f5f600160101b955060018060101b03945060018060101b0360201b935060011991505f19905060018060801b03199250909192939495565b5f819050919050565b6096816086565b82525050565b5f60c08201905060ad5f830189608f565b60b86020830188608f565b60c36040830187608f565b60ce6060830186608f565b60d96080830185608f565b60e460a0830184608f565b97965050505050505056fea2646970667358221220884f34a91f44cf295ac3a51a32fbdf744736a30ca6996a4928acb7d11af23c4264736f6c634300081e0033","linkReferences":{}},"methodIdentifiers":{"normalMask()":"c4731163"},"id":22}