{"abi":[{"type":"function","name":"readConstant","inputs":[],"outputs":[{"name":"","type":"uint256","internalType":"uint256"}],"stateMutability":"pure"}],"bytecode":{"object":"0x6080604052348015600e575f5ffd5b5060b080601a5f395ff3fe6080604052348015600e575f5ffd5b50600436106026575f3560e01c8063e69b67ab14602a575b5f5ffd5b60306044565b604051603b91906063565b60405180910390f35b5f6103e8905090565b5f819050919050565b605d81604d565b82525050565b5f60208201905060745f8301846056565b9291505056fea2646970667358221220b18d5230c2aefa379a8968f39bd64a8ec78627db575961412f46de5018ab18bf64736f6c634300081e0033","linkReferences":{}},"methodIdentifiers":{"readConstant()":"e69b67ab"},"id":19}