{"abi":[{"type":"function","name":"AddressEncode","inputs":[],"outputs":[{"name":"","type":"bytes","internalType":"bytes"}],"stateMutability":"pure"},{"type":"function","name":"BytesEncode","inputs":[],"outputs":[{"name":"","type":"bytes","internalType":"bytes"}],"stateMutability":"pure"},{"type":"function","name":"StaticMix","inputs":[],"outputs":[{"name":"","type":"bytes","internalType":"bytes"}],"stateMutability":"pure"},{"type":"function","name":"StringEncode","inputs":[],"outputs":[{"name":"","type":"bytes","internalType":"bytes"}],"stateMutability":"pure"},{"type":"function","name":"UintsEncode","inputs":[],"outputs":[{"name":"","type":"bytes","internalType":"bytes"}],"stateMutability":"pure"}],"bytecode":{"object":"0x6080604052348015600e575f5ffd5b506104de8061001c5f395ff3fe608060405234801561000f575f5ffd5b5060043610610055575f3560e01c80630ab94097146100595780631ec6b8d41461007757806369a1d643146100955780636a915ca2146100b3578063cc4b947c146100d1575b5f5ffd5b6100616100ef565b60405161006e9190610266565b60405180910390f35b61007f61012a565b60405161008c9190610266565b60405180910390f35b61009d61014f565b6040516100aa9190610266565b60405180910390f35b6100bb61017a565b6040516100c89190610266565b60405180910390f35b6100d96101c0565b6040516100e69190610266565b60405180910390f35b606073d6b0794b7aea7190f1831a40393e599cc0864eb360405160200161011691906102c5565b604051602081830303815290604052905090565b606060405160200161013b90610338565b604051602081830303815290604052905090565b606063abcdef1260405160200161016691906103a7565b604051602081830303815290604052905090565b606073d6b0794b7aea7190f1831a40393e599cc0864eb36201d9e063abcdef126040516020016101ac93929190610407565b604051602081830303815290604052905090565b60606e291bf5139ecbf97aeba956631f85036040516020016101e2919061048f565b604051602081830303815290604052905090565b5f81519050919050565b5f82825260208201905092915050565b8281835e5f83830152505050565b5f601f19601f8301169050919050565b5f610238826101f6565b6102428185610200565b9350610252818560208601610210565b61025b8161021e565b840191505092915050565b5f6020820190508181035f83015261027e818461022e565b905092915050565b5f73ffffffffffffffffffffffffffffffffffffffff82169050919050565b5f6102af82610286565b9050919050565b6102bf816102a5565b82525050565b5f6020820190506102d85f8301846102b6565b92915050565b5f82825260208201905092915050565b7f59554c00000000000000000000000000000000000000000000000000000000005f82015250565b5f6103226003836102de565b915061032d826102ee565b602082019050919050565b5f6020820190508181035f83015261034f81610316565b9050919050565b5f819050919050565b5f63ffffffff82169050919050565b5f819050919050565b5f61039161038c61038784610356565b61036e565b61035f565b9050919050565b6103a181610377565b82525050565b5f6020820190506103ba5f830184610398565b92915050565b5f819050919050565b5f62ffffff82169050919050565b5f6103f16103ec6103e7846103c0565b61036e565b6103c9565b9050919050565b610401816103d7565b82525050565b5f60608201905061041a5f8301866102b6565b61042760208301856103f8565b6104346040830184610398565b949350505050565b5f819050919050565b5f6effffffffffffffffffffffffffffff82169050919050565b5f61047961047461046f8461043c565b61036e565b610445565b9050919050565b6104898161045f565b82525050565b5f6020820190506104a25f830184610480565b9291505056fea26469706673582212200d50bb4cb2fb30b3d32b3c101d2ff6fb5b606f83f86a679c4b51e1b669f8acbe64736f6c634300081e0033","linkReferences":{}},"methodIdentifiers":{"AddressEncode()":"0ab94097","BytesEncode()":"69a1d643","StaticMix()":"6a915ca2","StringEncode()":"1ec6b8d4","UintsEncode()":"cc4b947c"},"id":19}