{"abi":[{"type":"function","name":"AddressEncode","inputs":[],"outputs":[{"name":"","type":"bytes","internalType":"bytes"}],"stateMutability":"pure"},{"type":"function","name":"BooleanEncode","inputs":[],"outputs":[{"name":"","type":"bytes","internalType":"bytes"}],"stateMutability":"pure"},{"type":"function","name":"BytesArrayEncode","inputs":[],"outputs":[{"name":"","type":"bytes","internalType":"bytes"}],"stateMutability":"pure"},{"type":"function","name":"BytesEncode","inputs":[],"outputs":[{"name":"","type":"bytes","internalType":"bytes"}],"stateMutability":"pure"},{"type":"function","name":"DynamicBytesEncode","inputs":[{"name":"_data","type":"bytes","internalType":"bytes"}],"outputs":[{"name":"","type":"bytes","internalType":"bytes"}],"stateMutability":"pure"},{"type":"function","name":"StaticMix","inputs":[],"outputs":[{"name":"","type":"bytes","internalType":"bytes"}],"stateMutability":"pure"},{"type":"function","name":"StringArrayEncode","inputs":[],"outputs":[{"name":"","type":"bytes","internalType":"bytes"}],"stateMutability":"pure"},{"type":"function","name":"StringEncode","inputs":[],"outputs":[{"name":"","type":"bytes","internalType":"bytes"}],"stateMutability":"pure"},{"type":"function","name":"StructEncode","inputs":[],"outputs":[{"name":"","type":"bytes","internalType":"bytes"}],"stateMutability":"pure"},{"type":"function","name":"UintsArrayEncode","inputs":[],"outputs":[{"name":"","type":"bytes","internalType":"bytes"}],"stateMutability":"pure"},{"type":"function","name":"UintsEncode","inputs":[],"outputs":[{"name":"","type":"bytes","internalType":"bytes"}],"stateMutability":"pure"}],"bytecode":{"object":"0x6080604052348015600e575f5ffd5b50610f0d8061001c5f395ff3fe608060405234801561000f575f5ffd5b50600436106100a7575f3560e01c8063790a8c7f1161006f578063790a8c7f146101535780638a98192714610171578063911305ef1461018f57806394f31c31146101ad578063a55a10cd146101cb578063cc4b947c146101e9576100a7565b80630ab94097146100ab5780631ec6b8d4146100c95780634af8e9dc146100e757806369a1d643146101175780636a915ca214610135575b5f5ffd5b6100b3610207565b6040516100c0919061074e565b60405180910390f35b6100d1610242565b6040516100de919061074e565b60405180910390f35b61010160048036038101906100fc91906108ab565b610267565b60405161010e919061074e565b60405180910390f35b61011f610290565b60405161012c919061074e565b60405180910390f35b61013d6102be565b60405161014a919061074e565b60405180910390f35b61015b610307565b604051610168919061074e565b60405180910390f35b61017961044b565b604051610186919061074e565b60405180910390f35b610197610503565b6040516101a4919061074e565b60405180910390f35b6101b5610609565b6040516101c2919061074e565b60405180910390f35b6101d3610680565b6040516101e0919061074e565b60405180910390f35b6101f16106a8565b6040516101fe919061074e565b60405180910390f35b606073d6b0794b7aea7190f1831a40393e599cc0864eb360405160200161022e9190610931565b604051602081830303815290604052905090565b6060604051602001610253906109a4565b604051602081830303815290604052905090565b60608160405160200161027a919061074e565b6040516020818303038152906040529050919050565b606063abcdef1260e01b6040516020016102aa91906109fc565b604051602081830303815290604052905090565b606073d6b0794b7aea7190f1831a40393e599cc0864eb36201d9e063abcdef1260e01b6040516020016102f393929190610a65565b604051602081830303815290604052905090565b60605f600267ffffffffffffffff81111561032557610324610787565b5b6040519080825280602002602001820160405280156103535781602001602082028036833780820191505090505b50905063123456e160e01b815f8151811061037157610370610a9a565b5b60200260200101907bffffffffffffffffffffffffffffffffffffffffffffffffffffffff191690817bffffffffffffffffffffffffffffffffffffffffffffffffffffffff19168152505063a12e3f8f60e01b816001815181106103d9576103d8610a9a565b5b60200260200101907bffffffffffffffffffffffffffffffffffffffffffffffffffffffff191690817bffffffffffffffffffffffffffffffffffffffffffffffffffffffff191681525050806040516020016104369190610b7e565b60405160208183030381529060405291505090565b60605f600267ffffffffffffffff81111561046957610468610787565b5b6040519080825280602002602001820160405280156104975781602001602082028036833780820191505090505b509050608f815f815181106104af576104ae610a9a565b5b6020026020010181815250506064816001815181106104d1576104d0610a9a565b5b602002602001018181525050806040516020016104ee9190610c5e565b60405160208183030381529060405291505090565b60605f600267ffffffffffffffff81111561052157610520610787565b5b60405190808252806020026020018201604052801561055457816020015b606081526020019060019003908161053f5790505b509050604051806060016040528060338152602001610ea560339139815f8151811061058357610582610a9a565b5b60200260200101819052506040518060400160405280601c81526020017f59657320736f6c6964697479206d61646520697420617765736f6d6500000000815250816001815181106105d8576105d7610a9a565b5b6020026020010181905250806040516020016105f49190610d8b565b60405160208183030381529060405291505090565b60605f60405180604001604052806040518060400160405280600a81526020017f48656c6c6f2059756c2100000000000000000000000000000000000000000000815250815260200161046281525090508060405160200161066b9190610de5565b60405160208183030381529060405291505090565b606060016040516020016106949190610e1f565b604051602081830303815290604052905090565b60606e291bf5139ecbf97aeba956631f85036040516020016106ca9190610e8b565b604051602081830303815290604052905090565b5f81519050919050565b5f82825260208201905092915050565b8281835e5f83830152505050565b5f601f19601f8301169050919050565b5f610720826106de565b61072a81856106e8565b935061073a8185602086016106f8565b61074381610706565b840191505092915050565b5f6020820190508181035f8301526107668184610716565b905092915050565b5f604051905090565b5f5ffd5b5f5ffd5b5f5ffd5b5f5ffd5b7f4e487b71000000000000000000000000000000000000000000000000000000005f52604160045260245ffd5b6107bd82610706565b810181811067ffffffffffffffff821117156107dc576107db610787565b5b80604052505050565b5f6107ee61076e565b90506107fa82826107b4565b919050565b5f67ffffffffffffffff82111561081957610818610787565b5b61082282610706565b9050602081019050919050565b828183375f83830152505050565b5f61084f61084a846107ff565b6107e5565b90508281526020810184848401111561086b5761086a610783565b5b61087684828561082f565b509392505050565b5f82601f8301126108925761089161077f565b5b81356108a284826020860161083d565b91505092915050565b5f602082840312156108c0576108bf610777565b5b5f82013567ffffffffffffffff8111156108dd576108dc61077b565b5b6108e98482850161087e565b91505092915050565b5f73ffffffffffffffffffffffffffffffffffffffff82169050919050565b5f61091b826108f2565b9050919050565b61092b81610911565b82525050565b5f6020820190506109445f830184610922565b92915050565b5f82825260208201905092915050565b7f59554c00000000000000000000000000000000000000000000000000000000005f82015250565b5f61098e60038361094a565b91506109998261095a565b602082019050919050565b5f6020820190508181035f8301526109bb81610982565b9050919050565b5f7fffffffff0000000000000000000000000000000000000000000000000000000082169050919050565b6109f6816109c2565b82525050565b5f602082019050610a0f5f8301846109ed565b92915050565b5f819050919050565b5f62ffffff82169050919050565b5f819050919050565b5f610a4f610a4a610a4584610a15565b610a2c565b610a1e565b9050919050565b610a5f81610a35565b82525050565b5f606082019050610a785f830186610922565b610a856020830185610a56565b610a9260408301846109ed565b949350505050565b7f4e487b71000000000000000000000000000000000000000000000000000000005f52603260045260245ffd5b5f81519050919050565b5f82825260208201905092915050565b5f819050602082019050919050565b610af9816109c2565b82525050565b5f610b0a8383610af0565b60208301905092915050565b5f602082019050919050565b5f610b2c82610ac7565b610b368185610ad1565b9350610b4183610ae1565b805f5b83811015610b71578151610b588882610aff565b9750610b6383610b16565b925050600181019050610b44565b5085935050505092915050565b5f6020820190508181035f830152610b968184610b22565b905092915050565b5f81519050919050565b5f82825260208201905092915050565b5f819050602082019050919050565b5f819050919050565b610bd981610bc7565b82525050565b5f610bea8383610bd0565b60208301905092915050565b5f602082019050919050565b5f610c0c82610b9e565b610c168185610ba8565b9350610c2183610bb8565b805f5b83811015610c51578151610c388882610bdf565b9750610c4383610bf6565b925050600181019050610c24565b5085935050505092915050565b5f6020820190508181035f830152610c768184610c02565b905092915050565b5f81519050919050565b5f82825260208201905092915050565b5f819050602082019050919050565b5f81519050919050565b5f82825260208201905092915050565b5f610ccb82610ca7565b610cd58185610cb1565b9350610ce58185602086016106f8565b610cee81610706565b840191505092915050565b5f610d048383610cc1565b905092915050565b5f602082019050919050565b5f610d2282610c7e565b610d2c8185610c88565b935083602082028501610d3e85610c98565b805f5b85811015610d795784840389528151610d5a8582610cf9565b9450610d6583610d0c565b925060208a01995050600181019050610d41565b50829750879550505050505092915050565b5f6020820190508181035f830152610da38184610d18565b905092915050565b5f604083015f8301518482035f860152610dc58282610cc1565b9150506020830151610dda6020860182610bd0565b508091505092915050565b5f6020820190508181035f830152610dfd8184610dab565b905092915050565b5f8115159050919050565b610e1981610e05565b82525050565b5f602082019050610e325f830184610e10565b92915050565b5f819050919050565b5f6effffffffffffffffffffffffffffff82169050919050565b5f610e75610e70610e6b84610e38565b610a2c565b610e41565b9050919050565b610e8581610e5b565b82525050565b5f602082019050610e9e5f830184610e7c565b9291505056fe48656c6c6f2061726520796f7520656e6a6f79696e67207468652059554c2050726f6772616d6d696e67206c616e6775616765a26469706673582212208adc8a71fe9e2b7074adf4270f95cdf0fe3291c4556e7e2e88e822f24102736664736f6c634300081e0033","linkReferences":{}},"methodIdentifiers":{"AddressEncode()":"0ab94097","BooleanEncode()":"a55a10cd","BytesArrayEncode()":"790a8c7f","BytesEncode()":"69a1d643","DynamicBytesEncode(bytes)":"4af8e9dc","StaticMix()":"6a915ca2","StringArrayEncode()":"911305ef","StringEncode()":"1ec6b8d4","StructEncode()":"94f31c31","UintsArrayEncode()":"8a981927","UintsEncode()":"cc4b947c"},"id":19}