{"abi":[{"type":"constructor","inputs":[],"stateMutability":"nonpayable"},{"type":"function","name":"GOLD","inputs":[],"outputs":[{"name":"","type":"uint256","internalType":"uint256"}],"stateMutability":"view"},{"type":"function","name":"SHIELD","inputs":[],"outputs":[{"name":"","type":"uint256","internalType":"uint256"}],"stateMutability":"view"},{"type":"function","name":"SILVER","inputs":[],"outputs":[{"name":"","type":"uint256","internalType":"uint256"}],"stateMutability":"view"},{"type":"function","name":"SWORD","inputs":[],"outputs":[{"name":"","type":"uint256","internalType":"uint256"}],"stateMutability":"view"},{"type":"function","name":"THORS_HAMMER","inputs":[],"outputs":[{"name":"","type":"uint256","internalType":"uint256"}],"stateMutability":"view"},{"type":"function","name":"balanceOf","inputs":[{"name":"account","type":"address","internalType":"address"},{"name":"id","type":"uint256","internalType":"uint256"}],"outputs":[{"name":"","type":"uint256","internalType":"uint256"}],"stateMutability":"view"},{"type":"function","name":"balanceOfBatch","inputs":[{"name":"accounts","type":"address[]","internalType":"address[]"},{"name":"ids","type":"uint256[]","internalType":"uint256[]"}],"outputs":[{"name":"","type":"uint256[]","internalType":"uint256[]"}],"stateMutability":"view"},{"type":"function","name":"isApprovedForAll","inputs":[{"name":"account","type":"address","internalType":"address"},{"name":"operator","type":"address","internalType":"address"}],"outputs":[{"name":"","type":"bool","internalType":"bool"}],"stateMutability":"view"},{"type":"function","name":"safeBatchTransferFrom","inputs":[{"name":"from","type":"address","internalType":"address"},{"name":"to","type":"address","internalType":"address"},{"name":"ids","type":"uint256[]","internalType":"uint256[]"},{"name":"values","type":"uint256[]","internalType":"uint256[]"},{"name":"data","type":"bytes","internalType":"bytes"}],"outputs":[],"stateMutability":"nonpayable"},{"type":"function","name":"safeTransferFrom","inputs":[{"name":"from","type":"address","internalType":"address"},{"name":"to","type":"address","internalType":"address"},{"name":"id","type":"uint256","internalType":"uint256"},{"name":"value","type":"uint256","internalType":"uint256"},{"name":"data","type":"bytes","internalType":"bytes"}],"outputs":[],"stateMutability":"nonpayable"},{"type":"function","name":"setApprovalForAll","inputs":[{"name":"operator","type":"address","internalType":"address"},{"name":"approved","type":"bool","internalType":"bool"}],"outputs":[],"stateMutability":"nonpayable"},{"type":"function","name":"supportsInterface","inputs":[{"name":"interfaceId","type":"bytes4","internalType":"bytes4"}],"outputs":[{"name":"","type":"bool","internalType":"bool"}],"stateMutability":"view"},{"type":"function","name":"uri","inputs":[{"name":"","type":"uint256","internalType":"uint256"}],"outputs":[{"name":"","type":"string","internalType":"string"}],"stateMutability":"view"},{"type":"event","name":"ApprovalForAll","inputs":[{"name":"account","type":"address","indexed":true,"internalType":"address"},{"name":"operator","type":"address","indexed":true,"internalType":"address"},{"name":"approved","type":"bool","indexed":false,"internalType":"bool"}],"anonymous":false},{"type":"event","name":"TransferBatch","inputs":[{"name":"operator","type":"address","indexed":true,"internalType":"address"},{"name":"from","type":"address","indexed":true,"internalType":"address"},{"name":"to","type":"address","indexed":true,"internalType":"address"},{"name":"ids","type":"uint256[]","indexed":false,"internalType":"uint256[]"},{"name":"values","type":"uint256[]","indexed":false,"internalType":"uint256[]"}],"anonymous":false},{"type":"event","name":"TransferSingle","inputs":[{"name":"operator","type":"address","indexed":true,"internalType":"address"},{"name":"from","type":"address","indexed":true,"internalType":"address"},{"name":"to","type":"address","indexed":true,"internalType":"address"},{"name":"id","type":"uint256","indexed":false,"internalType":"uint256"},{"name":"value","type":"uint256","indexed":false,"internalType":"uint256"}],"anonymous":false},{"type":"event","name":"URI","inputs":[{"name":"value","type":"string","indexed":false,"internalType":"string"},{"name":"id","type":"uint256","indexed":true,"internalType":"uint256"}],"anonymous":false},{"type":"error","name":"ERC1155InsufficientBalance","inputs":[{"name":"sender","type":"address","internalType":"address"},{"name":"balance","type":"uint256","internalType":"uint256"},{"name":"needed","type":"uint256","internalType":"uint256"},{"name":"tokenId","type":"uint256","internalType":"uint256"}]},{"type":"error","name":"ERC1155InvalidApprover","inputs":[{"name":"approver","type":"address","internalType":"address"}]},{"type":"error","name":"ERC1155InvalidArrayLength","inputs":[{"name":"idsLength","type":"uint256","internalType":"uint256"},{"name":"valuesLength","type":"uint256","internalType":"uint256"}]},{"type":"error","name":"ERC1155InvalidOperator","inputs":[{"name":"operator","type":"address","internalType":"address"}]},{"type":"error","name":"ERC1155InvalidReceiver","inputs":[{"name":"receiver","type":"address","internalType":"address"}]},{"type":"error","name":"ERC1155InvalidSender","inputs":[{"name":"sender","type":"address","internalType":"address"}]},{"type":"error","name":"ERC1155MissingApprovalForAll","inputs":[{"name":"operator","type":"address","internalType":"address"},{"name":"owner","type":"address","internalType":"address"}]}],"bytecode":{"object":"0x608060405234801561000f575f5ffd5b50604051806060016040528060278152602001612fbc60279139610038816100ff60201b60201c565b50610061335f670de0b6b3a764000060405180602001604052805f81525061011260201b60201c565b61008e3360016b033b2e3c9fd0803ce800000060405180602001604052805f81525061011260201b60201c565b6100b0336002600160405180602001604052805f81525061011260201b60201c565b6100d5336003633b9aca0060405180602001604052805f81525061011260201b60201c565b6100fa336004633b9aca0060405180602001604052805f81525061011260201b60201c565b611093565b806002908161010e9190610bf5565b5050565b5f73ffffffffffffffffffffffffffffffffffffffff168473ffffffffffffffffffffffffffffffffffffffff1603610182575f6040517f57f447ce0000000000000000000000000000000000000000000000000000000081526004016101799190610d03565b60405180910390fd5b5f5f61019485856101b360201b60201c565b915091506101ab5f878484876101e360201b60201c565b505050505050565b60608060405191506001825283602083015260408201905060018152826020820152604081016040529250929050565b6101f5858585856102a760201b60201c565b5f73ffffffffffffffffffffffffffffffffffffffff168473ffffffffffffffffffffffffffffffffffffffff16146102a0575f61023761064060201b60201c565b90506001845103610289575f6102565f8661064760201b90919060201c565b90505f61026c5f8661064760201b90919060201c565b905061028283898985858961065a60201b60201c565b505061029e565b61029d81878787878761080960201b60201c565b5b505b5050505050565b80518251146102f157815181516040517f5b0599910000000000000000000000000000000000000000000000000000000081526004016102e8929190610d2b565b60405180910390fd5b5f61030061064060201b60201c565b90505f5f90505b83518110156104ff575f610324828661064760201b90919060201c565b90505f61033a838661064760201b90919060201c565b90505f73ffffffffffffffffffffffffffffffffffffffff168873ffffffffffffffffffffffffffffffffffffffff161461045d575f5f5f8481526020019081526020015f205f8a73ffffffffffffffffffffffffffffffffffffffff1673ffffffffffffffffffffffffffffffffffffffff1681526020019081526020015f205490508181101561040957888183856040517f03dee4c50000000000000000000000000000000000000000000000000000000081526004016104009493929190610d52565b60405180910390fd5b8181035f5f8581526020019081526020015f205f8b73ffffffffffffffffffffffffffffffffffffffff1673ffffffffffffffffffffffffffffffffffffffff1681526020019081526020015f2081905550505b5f73ffffffffffffffffffffffffffffffffffffffff168773ffffffffffffffffffffffffffffffffffffffff16146104f257805f5f8481526020019081526020015f205f8973ffffffffffffffffffffffffffffffffffffffff1673ffffffffffffffffffffffffffffffffffffffff1681526020019081526020015f205f8282546104ea9190610dc2565b925050819055505b5050806001019050610307565b5060018351036105ba575f61051d5f8561064760201b90919060201c565b90505f6105335f8561064760201b90919060201c565b90508573ffffffffffffffffffffffffffffffffffffffff168773ffffffffffffffffffffffffffffffffffffffff168473ffffffffffffffffffffffffffffffffffffffff167fc3d58168c5ae7397731d063d5bbf3d657854427343f4c083240f7aacaa2d0f6285856040516105ab929190610d2b565b60405180910390a45050610639565b8373ffffffffffffffffffffffffffffffffffffffff168573ffffffffffffffffffffffffffffffffffffffff168273ffffffffffffffffffffffffffffffffffffffff167f4a39dc06d4c0dbc64b70af90fd698a233a518aa5d07e595d983b8c0526c8f7fb8686604051610630929190610eac565b60405180910390a45b5050505050565b5f33905090565b5f60208202602084010151905092915050565b5f8473ffffffffffffffffffffffffffffffffffffffff163b1115610801578373ffffffffffffffffffffffffffffffffffffffff1663f23a6e6187878686866040518663ffffffff1660e01b81526004016106ba959493929190610f51565b6020604051808303815f875af19250505080156106f557506040513d601f19601f820116820180604052508101906106f29190611002565b60015b610776573d805f8114610723576040519150601f19603f3d011682016040523d82523d5f602084013e610728565b606091505b505f81510361076e57846040517f57f447ce0000000000000000000000000000000000000000000000000000000081526004016107659190610d03565b60405180910390fd5b805160208201fd5b63f23a6e6160e01b7bffffffffffffffffffffffffffffffffffffffffffffffffffffffff1916817bffffffffffffffffffffffffffffffffffffffffffffffffffffffff1916146107ff57846040517f57f447ce0000000000000000000000000000000000000000000000000000000081526004016107f69190610d03565b60405180910390fd5b505b505050505050565b5f8473ffffffffffffffffffffffffffffffffffffffff163b11156109b0578373ffffffffffffffffffffffffffffffffffffffff1663bc197c8187878686866040518663ffffffff1660e01b815260040161086995949392919061102d565b6020604051808303815f875af19250505080156108a457506040513d601f19601f820116820180604052508101906108a19190611002565b60015b610925573d805f81146108d2576040519150601f19603f3d011682016040523d82523d5f602084013e6108d7565b606091505b505f81510361091d57846040517f57f447ce0000000000000000000000000000000000000000000000000000000081526004016109149190610d03565b60405180910390fd5b805160208201fd5b63bc197c8160e01b7bffffffffffffffffffffffffffffffffffffffffffffffffffffffff1916817bffffffffffffffffffffffffffffffffffffffffffffffffffffffff1916146109ae57846040517f57f447ce0000000000000000000000000000000000000000000000000000000081526004016109a59190610d03565b60405180910390fd5b505b505050505050565b5f81519050919050565b7f4e487b71000000000000000000000000000000000000000000000000000000005f52604160045260245ffd5b7f4e487b71000000000000000000000000000000000000000000000000000000005f52602260045260245ffd5b5f6002820490506001821680610a3357607f821691505b602082108103610a4657610a456109ef565b5b50919050565b5f819050815f5260205f209050919050565b5f6020601f8301049050919050565b5f82821b905092915050565b5f60088302610aa87fffffffffffffffffffffffffffffffffffffffffffffffffffffffffffffffff82610a6d565b610ab28683610a6d565b95508019841693508086168417925050509392505050565b5f819050919050565b5f819050919050565b5f610af6610af1610aec84610aca565b610ad3565b610aca565b9050919050565b5f819050919050565b610b0f83610adc565b610b23610b1b82610afd565b848454610a79565b825550505050565b5f5f905090565b610b3a610b2b565b610b45818484610b06565b505050565b5b81811015610b6857610b5d5f82610b32565b600181019050610b4b565b5050565b601f821115610bad57610b7e81610a4c565b610b8784610a5e565b81016020851015610b96578190505b610baa610ba285610a5e565b830182610b4a565b50505b505050565b5f82821c905092915050565b5f610bcd5f1984600802610bb2565b1980831691505092915050565b5f610be58383610bbe565b9150826002028217905092915050565b610bfe826109b8565b67ffffffffffffffff811115610c1757610c166109c2565b5b610c218254610a1c565b610c2c828285610b6c565b5f60209050601f831160018114610c5d575f8415610c4b578287015190505b610c558582610bda565b865550610cbc565b601f198416610c6b86610a4c565b5f5b82811015610c9257848901518255600182019150602085019450602081019050610c6d565b86831015610caf5784890151610cab601f891682610bbe565b8355505b6001600288020188555050505b505050505050565b5f73ffffffffffffffffffffffffffffffffffffffff82169050919050565b5f610ced82610cc4565b9050919050565b610cfd81610ce3565b82525050565b5f602082019050610d165f830184610cf4565b92915050565b610d2581610aca565b82525050565b5f604082019050610d3e5f830185610d1c565b610d4b6020830184610d1c565b9392505050565b5f608082019050610d655f830187610cf4565b610d726020830186610d1c565b610d7f6040830185610d1c565b610d8c6060830184610d1c565b95945050505050565b7f4e487b71000000000000000000000000000000000000000000000000000000005f52601160045260245ffd5b5f610dcc82610aca565b9150610dd783610aca565b9250828201905080821115610def57610dee610d95565b5b92915050565b5f81519050919050565b5f82825260208201905092915050565b5f819050602082019050919050565b610e2781610aca565b82525050565b5f610e388383610e1e565b60208301905092915050565b5f602082019050919050565b5f610e5a82610df5565b610e648185610dff565b9350610e6f83610e0f565b805f5b83811015610e9f578151610e868882610e2d565b9750610e9183610e44565b925050600181019050610e72565b5085935050505092915050565b5f6040820190508181035f830152610ec48185610e50565b90508181036020830152610ed88184610e50565b90509392505050565b5f81519050919050565b5f82825260208201905092915050565b8281835e5f83830152505050565b5f601f19601f8301169050919050565b5f610f2382610ee1565b610f2d8185610eeb565b9350610f3d818560208601610efb565b610f4681610f09565b840191505092915050565b5f60a082019050610f645f830188610cf4565b610f716020830187610cf4565b610f7e6040830186610d1c565b610f8b6060830185610d1c565b8181036080830152610f9d8184610f19565b90509695505050505050565b5f5ffd5b5f7fffffffff0000000000000000000000000000000000000000000000000000000082169050919050565b610fe181610fad565b8114610feb575f5ffd5b50565b5f81519050610ffc81610fd8565b92915050565b5f6020828403121561101757611016610fa9565b5b5f61102484828501610fee565b91505092915050565b5f60a0820190506110405f830188610cf4565b61104d6020830187610cf4565b818103604083015261105f8186610e50565b905081810360608301526110738185610e50565b905081810360808301526110878184610f19565b90509695505050505050565b611f1c806110a05f395ff3fe608060405234801561000f575f5ffd5b50600436106100cc575f3560e01c80634e1273f41161008a578063d562e20411610064578063d562e20414610222578063e3e55f0814610240578063e985e9c51461025e578063f242432a1461028e576100cc565b80634e1273f4146101b85780635b2725ed146101e8578063a22cb46514610206576100cc565b8062fdd58e146100d057806301ffc9a7146101005780630e89341c1461013057806313dc989f146101605780632eb2c2d61461017e5780633e4bee381461019a575b5f5ffd5b6100ea60048036038101906100e591906113ea565b6102aa565b6040516100f79190611437565b60405180910390f35b61011a600480360381019061011591906114a5565b6102ff565b60405161012791906114ea565b60405180910390f35b61014a60048036038101906101459190611503565b6103e0565b604051610157919061159e565b60405180910390f35b610168610472565b6040516101759190611437565b60405180910390f35b610198600480360381019061019391906117ae565b610477565b005b6101a261051e565b6040516101af9190611437565b60405180910390f35b6101d260048036038101906101cd9190611939565b610522565b6040516101df9190611a66565b60405180910390f35b6101f061062c565b6040516101fd9190611437565b60405180910390f35b610220600480360381019061021b9190611ab0565b610631565b005b61022a610647565b6040516102379190611437565b60405180910390f35b61024861064c565b6040516102559190611437565b60405180910390f35b61027860048036038101906102739190611aee565b610651565b60405161028591906114ea565b60405180910390f35b6102a860048036038101906102a39190611b2c565b6106df565b005b5f5f5f8381526020019081526020015f205f8473ffffffffffffffffffffffffffffffffffffffff1673ffffffffffffffffffffffffffffffffffffffff1681526020019081526020015f2054905092915050565b5f7fd9b67a26000000000000000000000000000000000000000000000000000000007bffffffffffffffffffffffffffffffffffffffffffffffffffffffff1916827bffffffffffffffffffffffffffffffffffffffffffffffffffffffff191614806103c957507f0e89341c000000000000000000000000000000000000000000000000000000007bffffffffffffffffffffffffffffffffffffffffffffffffffffffff1916827bffffffffffffffffffffffffffffffffffffffffffffffffffffffff1916145b806103d957506103d882610786565b5b9050919050565b6060600280546103ef90611bec565b80601f016020809104026020016040519081016040528092919081815260200182805461041b90611bec565b80156104665780601f1061043d57610100808354040283529160200191610466565b820191905f5260205f20905b81548152906001019060200180831161044957829003601f168201915b50505050509050919050565b600381565b5f6104806107ef565b90508073ffffffffffffffffffffffffffffffffffffffff168673ffffffffffffffffffffffffffffffffffffffff16141580156104c557506104c38682610651565b155b156105095780866040517fe237d922000000000000000000000000000000000000000000000000000000008152600401610500929190611c2b565b60405180910390fd5b61051686868686866107f6565b505050505050565b5f81565b6060815183511461056e57815183516040517f5b059991000000000000000000000000000000000000000000000000000000008152600401610565929190611c52565b60405180910390fd5b5f835167ffffffffffffffff81111561058a576105896115c2565b5b6040519080825280602002602001820160405280156105b85781602001602082028036833780820191505090505b5090505f5f90505b8451811015610621576105f76105df82876108ea90919063ffffffff16565b6105f283876108fd90919063ffffffff16565b6102aa565b82828151811061060a57610609611c79565b5b6020026020010181815250508060010190506105c0565b508091505092915050565b600481565b61064361063c6107ef565b8383610910565b5050565b600281565b600181565b5f60015f8473ffffffffffffffffffffffffffffffffffffffff1673ffffffffffffffffffffffffffffffffffffffff1681526020019081526020015f205f8373ffffffffffffffffffffffffffffffffffffffff1673ffffffffffffffffffffffffffffffffffffffff1681526020019081526020015f205f9054906101000a900460ff16905092915050565b5f6106e86107ef565b90508073ffffffffffffffffffffffffffffffffffffffff168673ffffffffffffffffffffffffffffffffffffffff161415801561072d575061072b8682610651565b155b156107715780866040517fe237d922000000000000000000000000000000000000000000000000000000008152600401610768929190611c2b565b60405180910390fd5b61077e8686868686610a79565b505050505050565b5f7f01ffc9a7000000000000000000000000000000000000000000000000000000007bffffffffffffffffffffffffffffffffffffffffffffffffffffffff1916827bffffffffffffffffffffffffffffffffffffffffffffffffffffffff1916149050919050565b5f33905090565b5f73ffffffffffffffffffffffffffffffffffffffff168473ffffffffffffffffffffffffffffffffffffffff1603610866575f6040517f57f447ce00000000000000000000000000000000000000000000000000000000815260040161085d9190611ca6565b60405180910390fd5b5f73ffffffffffffffffffffffffffffffffffffffff168573ffffffffffffffffffffffffffffffffffffffff16036108d6575f6040517f01a835140000000000000000000000000000000000000000000000000000000081526004016108cd9190611ca6565b60405180910390fd5b6108e38585858585610b7f565b5050505050565b5f60208202602084010151905092915050565b5f60208202602084010151905092915050565b5f73ffffffffffffffffffffffffffffffffffffffff168273ffffffffffffffffffffffffffffffffffffffff1603610980575f6040517fced3e1000000000000000000000000000000000000000000000000000000000081526004016109779190611ca6565b60405180910390fd5b8060015f8573ffffffffffffffffffffffffffffffffffffffff1673ffffffffffffffffffffffffffffffffffffffff1681526020019081526020015f205f8473ffffffffffffffffffffffffffffffffffffffff1673ffffffffffffffffffffffffffffffffffffffff1681526020019081526020015f205f6101000a81548160ff0219169083151502179055508173ffffffffffffffffffffffffffffffffffffffff168373ffffffffffffffffffffffffffffffffffffffff167f17307eab39ab6107e8899845ad3d59bd9653f200f220920489ca2b5937696c3183604051610a6c91906114ea565b60405180910390a3505050565b5f73ffffffffffffffffffffffffffffffffffffffff168473ffffffffffffffffffffffffffffffffffffffff1603610ae9575f6040517f57f447ce000000000000000000000000000000000000000000000000000000008152600401610ae09190611ca6565b60405180910390fd5b5f73ffffffffffffffffffffffffffffffffffffffff168573ffffffffffffffffffffffffffffffffffffffff1603610b59575f6040517f01a83514000000000000000000000000000000000000000000000000000000008152600401610b509190611ca6565b60405180910390fd5b5f5f610b658585610c2b565b91509150610b768787848487610b7f565b50505050505050565b610b8b85858585610c5b565b5f73ffffffffffffffffffffffffffffffffffffffff168473ffffffffffffffffffffffffffffffffffffffff1614610c24575f610bc76107ef565b90506001845103610c13575f610be65f866108fd90919063ffffffff16565b90505f610bfc5f866108fd90919063ffffffff16565b9050610c0c838989858589610fee565b5050610c22565b610c2181878787878761119d565b5b505b5050505050565b60608060405191506001825283602083015260408201905060018152826020820152604081016040529250929050565b8051825114610ca557815181516040517f5b059991000000000000000000000000000000000000000000000000000000008152600401610c9c929190611c52565b60405180910390fd5b5f610cae6107ef565b90505f5f90505b8351811015610ead575f610cd282866108fd90919063ffffffff16565b90505f610ce883866108fd90919063ffffffff16565b90505f73ffffffffffffffffffffffffffffffffffffffff168873ffffffffffffffffffffffffffffffffffffffff1614610e0b575f5f5f8481526020019081526020015f205f8a73ffffffffffffffffffffffffffffffffffffffff1673ffffffffffffffffffffffffffffffffffffffff1681526020019081526020015f2054905081811015610db757888183856040517f03dee4c5000000000000000000000000000000000000000000000000000000008152600401610dae9493929190611cbf565b60405180910390fd5b8181035f5f8581526020019081526020015f205f8b73ffffffffffffffffffffffffffffffffffffffff1673ffffffffffffffffffffffffffffffffffffffff1681526020019081526020015f2081905550505b5f73ffffffffffffffffffffffffffffffffffffffff168773ffffffffffffffffffffffffffffffffffffffff1614610ea057805f5f8481526020019081526020015f205f8973ffffffffffffffffffffffffffffffffffffffff1673ffffffffffffffffffffffffffffffffffffffff1681526020019081526020015f205f828254610e989190611d2f565b925050819055505b5050806001019050610cb5565b506001835103610f68575f610ecb5f856108fd90919063ffffffff16565b90505f610ee15f856108fd90919063ffffffff16565b90508573ffffffffffffffffffffffffffffffffffffffff168773ffffffffffffffffffffffffffffffffffffffff168473ffffffffffffffffffffffffffffffffffffffff167fc3d58168c5ae7397731d063d5bbf3d657854427343f4c083240f7aacaa2d0f628585604051610f59929190611c52565b60405180910390a45050610fe7565b8373ffffffffffffffffffffffffffffffffffffffff168573ffffffffffffffffffffffffffffffffffffffff168273ffffffffffffffffffffffffffffffffffffffff167f4a39dc06d4c0dbc64b70af90fd698a233a518aa5d07e595d983b8c0526c8f7fb8686604051610fde929190611d62565b60405180910390a45b5050505050565b5f8473ffffffffffffffffffffffffffffffffffffffff163b1115611195578373ffffffffffffffffffffffffffffffffffffffff1663f23a6e6187878686866040518663ffffffff1660e01b815260040161104e959493929190611de9565b6020604051808303815f875af192505050801561108957506040513d601f19601f820116820180604052508101906110869190611e55565b60015b61110a573d805f81146110b7576040519150601f19603f3d011682016040523d82523d5f602084013e6110bc565b606091505b505f81510361110257846040517f57f447ce0000000000000000000000000000000000000000000000000000000081526004016110f99190611ca6565b60405180910390fd5b805160208201fd5b63f23a6e6160e01b7bffffffffffffffffffffffffffffffffffffffffffffffffffffffff1916817bffffffffffffffffffffffffffffffffffffffffffffffffffffffff19161461119357846040517f57f447ce00000000000000000000000000000000000000000000000000000000815260040161118a9190611ca6565b60405180910390fd5b505b505050505050565b5f8473ffffffffffffffffffffffffffffffffffffffff163b1115611344578373ffffffffffffffffffffffffffffffffffffffff1663bc197c8187878686866040518663ffffffff1660e01b81526004016111fd959493929190611e80565b6020604051808303815f875af192505050801561123857506040513d601f19601f820116820180604052508101906112359190611e55565b60015b6112b9573d805f8114611266576040519150601f19603f3d011682016040523d82523d5f602084013e61126b565b606091505b505f8151036112b157846040517f57f447ce0000000000000000000000000000000000000000000000000000000081526004016112a89190611ca6565b60405180910390fd5b805160208201fd5b63bc197c8160e01b7bffffffffffffffffffffffffffffffffffffffffffffffffffffffff1916817bffffffffffffffffffffffffffffffffffffffffffffffffffffffff19161461134257846040517f57f447ce0000000000000000000000000000000000000000000000000000000081526004016113399190611ca6565b60405180910390fd5b505b505050505050565b5f604051905090565b5f5ffd5b5f5ffd5b5f73ffffffffffffffffffffffffffffffffffffffff82169050919050565b5f6113868261135d565b9050919050565b6113968161137c565b81146113a0575f5ffd5b50565b5f813590506113b18161138d565b92915050565b5f819050919050565b6113c9816113b7565b81146113d3575f5ffd5b50565b5f813590506113e4816113c0565b92915050565b5f5f60408385031215611400576113ff611355565b5b5f61140d858286016113a3565b925050602061141e858286016113d6565b9150509250929050565b611431816113b7565b82525050565b5f60208201905061144a5f830184611428565b92915050565b5f7fffffffff0000000000000000000000000000000000000000000000000000000082169050919050565b61148481611450565b811461148e575f5ffd5b50565b5f8135905061149f8161147b565b92915050565b5f602082840312156114ba576114b9611355565b5b5f6114c784828501611491565b91505092915050565b5f8115159050919050565b6114e4816114d0565b82525050565b5f6020820190506114fd5f8301846114db565b92915050565b5f6020828403121561151857611517611355565b5b5f611525848285016113d6565b91505092915050565b5f81519050919050565b5f82825260208201905092915050565b8281835e5f83830152505050565b5f601f19601f8301169050919050565b5f6115708261152e565b61157a8185611538565b935061158a818560208601611548565b61159381611556565b840191505092915050565b5f6020820190508181035f8301526115b68184611566565b905092915050565b5f5ffd5b7f4e487b71000000000000000000000000000000000000000000000000000000005f52604160045260245ffd5b6115f882611556565b810181811067ffffffffffffffff82111715611617576116166115c2565b5b80604052505050565b5f61162961134c565b905061163582826115ef565b919050565b5f67ffffffffffffffff821115611654576116536115c2565b5b602082029050602081019050919050565b5f5ffd5b5f61167b6116768461163a565b611620565b9050808382526020820190506020840283018581111561169e5761169d611665565b5b835b818110156116c757806116b388826113d6565b8452602084019350506020810190506116a0565b5050509392505050565b5f82601f8301126116e5576116e46115be565b5b81356116f5848260208601611669565b91505092915050565b5f5ffd5b5f67ffffffffffffffff82111561171c5761171b6115c2565b5b61172582611556565b9050602081019050919050565b828183375f83830152505050565b5f61175261174d84611702565b611620565b90508281526020810184848401111561176e5761176d6116fe565b5b611779848285611732565b509392505050565b5f82601f830112611795576117946115be565b5b81356117a5848260208601611740565b91505092915050565b5f5f5f5f5f60a086880312156117c7576117c6611355565b5b5f6117d4888289016113a3565b95505060206117e5888289016113a3565b945050604086013567ffffffffffffffff81111561180657611805611359565b5b611812888289016116d1565b935050606086013567ffffffffffffffff81111561183357611832611359565b5b61183f888289016116d1565b925050608086013567ffffffffffffffff8111156118605761185f611359565b5b61186c88828901611781565b9150509295509295909350565b5f67ffffffffffffffff821115611893576118926115c2565b5b602082029050602081019050919050565b5f6118b66118b184611879565b611620565b905080838252602082019050602084028301858111156118d9576118d8611665565b5b835b8181101561190257806118ee88826113a3565b8452602084019350506020810190506118db565b5050509392505050565b5f82601f8301126119205761191f6115be565b5b81356119308482602086016118a4565b91505092915050565b5f5f6040838503121561194f5761194e611355565b5b5f83013567ffffffffffffffff81111561196c5761196b611359565b5b6119788582860161190c565b925050602083013567ffffffffffffffff81111561199957611998611359565b5b6119a5858286016116d1565b9150509250929050565b5f81519050919050565b5f82825260208201905092915050565b5f819050602082019050919050565b6119e1816113b7565b82525050565b5f6119f283836119d8565b60208301905092915050565b5f602082019050919050565b5f611a14826119af565b611a1e81856119b9565b9350611a29836119c9565b805f5b83811015611a59578151611a4088826119e7565b9750611a4b836119fe565b925050600181019050611a2c565b5085935050505092915050565b5f6020820190508181035f830152611a7e8184611a0a565b905092915050565b611a8f816114d0565b8114611a99575f5ffd5b50565b5f81359050611aaa81611a86565b92915050565b5f5f60408385031215611ac657611ac5611355565b5b5f611ad3858286016113a3565b9250506020611ae485828601611a9c565b9150509250929050565b5f5f60408385031215611b0457611b03611355565b5b5f611b11858286016113a3565b9250506020611b22858286016113a3565b9150509250929050565b5f5f5f5f5f60a08688031215611b4557611b44611355565b5b5f611b52888289016113a3565b9550506020611b63888289016113a3565b9450506040611b74888289016113d6565b9350506060611b85888289016113d6565b925050608086013567ffffffffffffffff811115611ba657611ba5611359565b5b611bb288828901611781565b9150509295509295909350565b7f4e487b71000000000000000000000000000000000000000000000000000000005f52602260045260245ffd5b5f6002820490506001821680611c0357607f821691505b602082108103611c1657611c15611bbf565b5b50919050565b611c258161137c565b82525050565b5f604082019050611c3e5f830185611c1c565b611c4b6020830184611c1c565b9392505050565b5f604082019050611c655f830185611428565b611c726020830184611428565b9392505050565b7f4e487b71000000000000000000000000000000000000000000000000000000005f52603260045260245ffd5b5f602082019050611cb95f830184611c1c565b92915050565b5f608082019050611cd25f830187611c1c565b611cdf6020830186611428565b611cec6040830185611428565b611cf96060830184611428565b95945050505050565b7f4e487b71000000000000000000000000000000000000000000000000000000005f52601160045260245ffd5b5f611d39826113b7565b9150611d44836113b7565b9250828201905080821115611d5c57611d5b611d02565b5b92915050565b5f6040820190508181035f830152611d7a8185611a0a565b90508181036020830152611d8e8184611a0a565b90509392505050565b5f81519050919050565b5f82825260208201905092915050565b5f611dbb82611d97565b611dc58185611da1565b9350611dd5818560208601611548565b611dde81611556565b840191505092915050565b5f60a082019050611dfc5f830188611c1c565b611e096020830187611c1c565b611e166040830186611428565b611e236060830185611428565b8181036080830152611e358184611db1565b90509695505050505050565b5f81519050611e4f8161147b565b92915050565b5f60208284031215611e6a57611e69611355565b5b5f611e7784828501611e41565b91505092915050565b5f60a082019050611e935f830188611c1c565b611ea06020830187611c1c565b8181036040830152611eb28186611a0a565b90508181036060830152611ec68185611a0a565b90508181036080830152611eda8184611db1565b9050969550505050505056fea26469706673582212209b0d7cfd8890d03a88697975655db6fccb465763b235a4500f2740d4ca980c5264736f6c634300081e003368747470733a2f2f67616d652e6578616d706c652f6170692f6974656d2f7b69647d2e6a736f6e","linkReferences":{}},"methodIdentifiers":{"GOLD()":"3e4bee38","SHIELD()":"5b2725ed","SILVER()":"e3e55f08","SWORD()":"13dc989f","THORS_HAMMER()":"d562e204","balanceOf(address,uint256)":"00fdd58e","balanceOfBatch(address[],uint256[])":"4e1273f4","isApprovedForAll(address,address)":"e985e9c5","safeBatchTransferFrom(address,address,uint256[],uint256[],bytes)":"2eb2c2d6","safeTransferFrom(address,address,uint256,uint256,bytes)":"f242432a","setApprovalForAll(address,bool)":"a22cb465","supportsInterface(bytes4)":"01ffc9a7","uri(uint256)":"0e89341c"},"id":35}