{"abi":[{"type":"function","name":"testCallDoesNotExist","inputs":[{"name":"_addr","type":"address","internalType":"address payable"}],"outputs":[],"stateMutability":"payable"},{"type":"function","name":"testCallFoo","inputs":[{"name":"_addr","type":"address","internalType":"address payable"}],"outputs":[],"stateMutability":"payable"},{"type":"event","name":"Response","inputs":[{"name":"success","type":"bool","indexed":false,"internalType":"bool"},{"name":"data","type":"bytes","indexed":false,"internalType":"bytes"}],"anonymous":false}],"bytecode":{"object":"0x6080604052348015600e575f5ffd5b506105688061001c5f395ff3fe608060405260043610610028575f3560e01c806387ba61791461002c578063ff00726c14610048575b5f5ffd5b6100466004803603810190610041919061032b565b610064565b005b610062600480360381019061005d919061032b565b6101a1565b005b5f5f8273ffffffffffffffffffffffffffffffffffffffff163461138890607b60405160240161009491906103fe565b6040516020818303038152906040527f24ccab8f000000000000000000000000000000000000000000000000000000007bffffffffffffffffffffffffffffffffffffffffffffffffffffffff19166020820180517bffffffffffffffffffffffffffffffffffffffffffffffffffffffff838183161783525050505060405161011e919061047c565b5f60405180830381858888f193505050503d805f8114610159576040519150601f19603f3d011682016040523d82523d5f602084013e61015e565b606091505b50915091507f13848c3e38f8886f3f5d2ad9dff80d8092c2bbb8efd5b887a99c2c6cfc09ac2a8282604051610194929190610504565b60405180910390a1505050565b5f5f8273ffffffffffffffffffffffffffffffffffffffff16346040516024016040516020818303038152906040527f1dcc85ae000000000000000000000000000000000000000000000000000000007bffffffffffffffffffffffffffffffffffffffffffffffffffffffff19166020820180517bffffffffffffffffffffffffffffffffffffffffffffffffffffffff838183161783525050505060405161024b919061047c565b5f6040518083038185875af1925050503d805f8114610285576040519150601f19603f3d011682016040523d82523d5f602084013e61028a565b606091505b50915091507f13848c3e38f8886f3f5d2ad9dff80d8092c2bbb8efd5b887a99c2c6cfc09ac2a82826040516102c0929190610504565b60405180910390a1505050565b5f5ffd5b5f73ffffffffffffffffffffffffffffffffffffffff82169050919050565b5f6102fa826102d1565b9050919050565b61030a816102f0565b8114610314575f5ffd5b50565b5f8135905061032581610301565b92915050565b5f602082840312156103405761033f6102cd565b5b5f61034d84828501610317565b91505092915050565b5f82825260208201905092915050565b7f63616c6c20666f6f0000000000000000000000000000000000000000000000005f82015250565b5f61039a600883610356565b91506103a582610366565b602082019050919050565b5f819050919050565b5f60ff82169050919050565b5f819050919050565b5f6103e86103e36103de846103b0565b6103c5565b6103b9565b9050919050565b6103f8816103ce565b82525050565b5f6040820190508181035f8301526104158161038e565b905061042460208301846103ef565b92915050565b5f81519050919050565b5f81905092915050565b8281835e5f83830152505050565b5f6104568261042a565b6104608185610434565b935061047081856020860161043e565b80840191505092915050565b5f610487828461044c565b915081905092915050565b5f8115159050919050565b6104a681610492565b82525050565b5f82825260208201905092915050565b5f601f19601f8301169050919050565b5f6104d68261042a565b6104e081856104ac565b93506104f081856020860161043e565b6104f9816104bc565b840191505092915050565b5f6040820190506105175f83018561049d565b818103602083015261052981846104cc565b9050939250505056fea264697066735822122091c342d761df8db28a0b3f0d91b3dce5e39368ccdc02c639cbcd81076541907164736f6c634300081e0033","linkReferences":{}},"methodIdentifiers":{"testCallDoesNotExist(address)":"ff00726c","testCallFoo(address)":"87ba6179"},"id":30}