{"abi":[{"type":"fallback","stateMutability":"payable"},{"type":"function","name":"foo","inputs":[{"name":"_message","type":"string","internalType":"string"},{"name":"_x","type":"uint256","internalType":"uint256"}],"outputs":[{"name":"","type":"uint256","internalType":"uint256"}],"stateMutability":"payable"},{"type":"event","name":"Received","inputs":[{"name":"caller","type":"address","indexed":false,"internalType":"address"},{"name":"amount","type":"uint256","indexed":false,"internalType":"uint256"},{"name":"message","type":"string","indexed":false,"internalType":"string"}],"anonymous":false}],"bytecode":{"object":"0x6080604052348015600e575f5ffd5b506104d58061001c5f395ff3fe608060405260043610610021575f3560e01c806324ccab8f1461005d57610022565b5b7f59e04c3f0d44b7caf6e8ef854b61d9a51cf1960d7a88ff6356cc5e946b4b5832333460405161005392919061018f565b60405180910390a1005b61007760048036038101906100729190610340565b61008d565b604051610084919061039a565b60405180910390f35b5f7f59e04c3f0d44b7caf6e8ef854b61d9a51cf1960d7a88ff6356cc5e946b4b58323334856040516100c193929190610403565b60405180910390a16001826100d6919061046c565b905092915050565b5f73ffffffffffffffffffffffffffffffffffffffff82169050919050565b5f610107826100de565b9050919050565b610117816100fd565b82525050565b5f819050919050565b61012f8161011d565b82525050565b5f82825260208201905092915050565b7f46616c6c6261636b207761732063616c6c6564000000000000000000000000005f82015250565b5f610179601383610135565b915061018482610145565b602082019050919050565b5f6060820190506101a25f83018561010e565b6101af6020830184610126565b81810360408301526101c08161016d565b90509392505050565b5f604051905090565b5f5ffd5b5f5ffd5b5f5ffd5b5f5ffd5b5f601f19601f8301169050919050565b7f4e487b71000000000000000000000000000000000000000000000000000000005f52604160045260245ffd5b610228826101e2565b810181811067ffffffffffffffff82111715610247576102466101f2565b5b80604052505050565b5f6102596101c9565b9050610265828261021f565b919050565b5f67ffffffffffffffff821115610284576102836101f2565b5b61028d826101e2565b9050602081019050919050565b828183375f83830152505050565b5f6102ba6102b58461026a565b610250565b9050828152602081018484840111156102d6576102d56101de565b5b6102e184828561029a565b509392505050565b5f82601f8301126102fd576102fc6101da565b5b813561030d8482602086016102a8565b91505092915050565b61031f8161011d565b8114610329575f5ffd5b50565b5f8135905061033a81610316565b92915050565b5f5f60408385031215610356576103556101d2565b5b5f83013567ffffffffffffffff811115610373576103726101d6565b5b61037f858286016102e9565b92505060206103908582860161032c565b9150509250929050565b5f6020820190506103ad5f830184610126565b92915050565b5f81519050919050565b8281835e5f83830152505050565b5f6103d5826103b3565b6103df8185610135565b93506103ef8185602086016103bd565b6103f8816101e2565b840191505092915050565b5f6060820190506104165f83018661010e565b6104236020830185610126565b818103604083015261043581846103cb565b9050949350505050565b7f4e487b71000000000000000000000000000000000000000000000000000000005f52601160045260245ffd5b5f6104768261011d565b91506104818361011d565b92508282019050808211156104995761049861043f565b5b9291505056fea2646970667358221220c7feb90915d4b1b9d4c92e654a61e25c32e554eaba7aa0d42d9754eefbc9153164736f6c634300081e0033","linkReferences":{}},"methodIdentifiers":{"foo(string,uint256)":"24ccab8f"},"id":30}