{"abi":[{"type":"constructor","inputs":[],"stateMutability":"nonpayable"},{"type":"function","name":"writeToStorageSlots","inputs":[{"name":"_slotNumber","type":"uint256","internalType":"uint256"},{"name":"_value","type":"uint256","internalType":"uint256"}],"outputs":[],"stateMutability":"nonpayable"}],"bytecode":{"object":"0x6080604052662386f26fc100005f55600560015f6101000a81548160ff021916908360ff160217905550600a6001806101000a81548161ffff021916908361ffff160217905550348015610051575f5ffd5b505f5f5f5f5f5f5f5f5f9450600193506001925060019150600290505f5497506001549650600254955061008a8861010060201b60201c565b6100998761010060201b60201c565b6100a88661010060201b60201c565b6100b78561019f60201b60201c565b6100c68461019f60201b60201c565b6100d58361019f60201b60201c565b6100e48261019f60201b60201c565b6100f38161019f60201b60201c565b505050505050505061032c565b61019c8160405160240161011491906102b5565b6040516020818303038152906040527f27b7cf85000000000000000000000000000000000000000000000000000000007bffffffffffffffffffffffffffffffffffffffffffffffffffffffff19166020820180517bffffffffffffffffffffffffffffffffffffffffffffffffffffffff838183161783525050505061023e60201b60201c565b50565b61023b816040516024016101b391906102e6565b6040516020818303038152906040527ff82c50f1000000000000000000000000000000000000000000000000000000007bffffffffffffffffffffffffffffffffffffffffffffffffffffffff19166020820180517bffffffffffffffffffffffffffffffffffffffffffffffffffffffff838183161783525050505061023e60201b60201c565b50565b61025f8161025a61026260201b61008c1761028160201b60201c565b60201c565b50565b5f6a636f6e736f6c652e6c6f6790505f5f835160208501845afa505050565b61029360201b61020217819050919050565b61029b6102ff565b565b5f819050919050565b6102af8161029d565b82525050565b5f6020820190506102c85f8301846102a6565b92915050565b5f819050919050565b6102e0816102ce565b82525050565b5f6020820190506102f95f8301846102d7565b92915050565b7f4e487b71000000000000000000000000000000000000000000000000000000005f52605160045260245ffd5b61033d806103395f395ff3fe608060405234801561000f575f5ffd5b5060043610610029575f3560e01c8063577fde6d1461002d575b5f5ffd5b61004760048036038101906100429190610243565b610049565b005b5f5f5f5f85549350855491508486558554925085549050610069846100ab565b61007282610144565b61007b836100ab565b61008481610144565b505050505050565b5f6a636f6e736f6c652e6c6f6790505f5f835160208501845afa505050565b610141816040516024016100bf9190610290565b6040516020818303038152906040527ff82c50f1000000000000000000000000000000000000000000000000000000007bffffffffffffffffffffffffffffffffffffffffffffffffffffffff19166020820180517bffffffffffffffffffffffffffffffffffffffffffffffffffffffff83818316178352505050506101dd565b50565b6101da8160405160240161015891906102c1565b6040516020818303038152906040527f27b7cf85000000000000000000000000000000000000000000000000000000007bffffffffffffffffffffffffffffffffffffffffffffffffffffffff19166020820180517bffffffffffffffffffffffffffffffffffffffffffffffffffffffff83818316178352505050506101dd565b50565b6101f4816101ec61008c6101f7565b63ffffffff16565b50565b610202819050919050565b61020a6102da565b565b5f5ffd5b5f819050919050565b61022281610210565b811461022c575f5ffd5b50565b5f8135905061023d81610219565b92915050565b5f5f604083850312156102595761025861020c565b5b5f6102668582860161022f565b92505060206102778582860161022f565b9150509250929050565b61028a81610210565b82525050565b5f6020820190506102a35f830184610281565b92915050565b5f819050919050565b6102bb816102a9565b82525050565b5f6020820190506102d45f8301846102b2565b92915050565b7f4e487b71000000000000000000000000000000000000000000000000000000005f52605160045260245ffdfea2646970667358221220af01639e51b56185fd1d6eee2d079670493e14b0dee09095a36013936cf34cbe64736f6c634300081e0033","linkReferences":{}},"methodIdentifiers":{"writeToStorageSlots(uint256,uint256)":"577fde6d"},"id":21}