{"abi":[{"type":"function","name":"TypeErrorNotImplicitlyConvertible","inputs":[{"name":"_value","type":"uint256","internalType":"uint256"}],"outputs":[],"stateMutability":"nonpayable"},{"type":"function","name":"owner","inputs":[],"outputs":[{"name":"","type":"address","internalType":"address"}],"stateMutability":"view"},{"type":"function","name":"sstoreHasNoTypeCheck","inputs":[{"name":"_value","type":"uint256","internalType":"uint256"}],"outputs":[],"stateMutability":"nonpayable"}],"bytecode":{"object":"0x608060405273c257274276a4e539741ca11b590b9447b26a80515f5f6101000a81548173ffffffffffffffffffffffffffffffffffffffff021916908373ffffffffffffffffffffffffffffffffffffffff1602179055503480156061575f5ffd5b506103108061006f5f395ff3fe608060405234801561000f575f5ffd5b506004361061003f575f3560e01c80633df73f3a146100435780635ecba1c01461005f5780638da5cb5b1461007b575b5f5ffd5b61005d60048036038101906100589190610202565b610099565b005b61007960048036038101906100749190610202565b6100bd565b005b6100836100c0565b604051610090919061026c565b60405180910390f35b5f5f5f549150825f555f5490506100af826100e4565b6100b8816100e4565b505050565b50565b5f5f9054906101000a900473ffffffffffffffffffffffffffffffffffffffff1681565b61017a816040516024016100f89190610294565b6040516020818303038152906040527ff82c50f1000000000000000000000000000000000000000000000000000000007bffffffffffffffffffffffffffffffffffffffffffffffffffffffff19166020820180517bffffffffffffffffffffffffffffffffffffffffffffffffffffffff838183161783525050505061017d565b50565b6101948161018c6101976101b6565b63ffffffff16565b50565b5f6a636f6e736f6c652e6c6f6790505f5f835160208501845afa505050565b6101c1819050919050565b6101c96102ad565b565b5f5ffd5b5f819050919050565b6101e1816101cf565b81146101eb575f5ffd5b50565b5f813590506101fc816101d8565b92915050565b5f60208284031215610217576102166101cb565b5b5f610224848285016101ee565b91505092915050565b5f73ffffffffffffffffffffffffffffffffffffffff82169050919050565b5f6102568261022d565b9050919050565b6102668161024c565b82525050565b5f60208201905061027f5f83018461025d565b92915050565b61028e816101cf565b82525050565b5f6020820190506102a75f830184610285565b92915050565b7f4e487b71000000000000000000000000000000000000000000000000000000005f52605160045260245ffdfea2646970667358221220727e83aeebc1d7e918829955f68382fee9615268056e9f248348838fdc1c028f64736f6c634300081e0033","linkReferences":{}},"methodIdentifiers":{"TypeErrorNotImplicitlyConvertible(uint256)":"5ecba1c0","owner()":"8da5cb5b","sstoreHasNoTypeCheck(uint256)":"3df73f3a"},"id":21}