{"abi":[{"type":"function","name":"echoMessage","inputs":[{"name":"message","type":"string","internalType":"string"}],"outputs":[{"name":"","type":"string","internalType":"string"}],"stateMutability":"pure"},{"type":"function","name":"modifyArray","inputs":[{"name":"inputArray","type":"uint256[]","internalType":"uint256[]"}],"outputs":[{"name":"","type":"uint256[]","internalType":"uint256[]"}],"stateMutability":"pure"},{"type":"function","name":"processArray","inputs":[{"name":"inputArray","type":"uint256[]","internalType":"uint256[]"}],"outputs":[{"name":"","type":"uint256","internalType":"uint256"}],"stateMutability":"pure"}],"bytecode":{"object":"0x6080604052348015600e575f5ffd5b5061056f8061001c5f395ff3fe608060405234801561000f575f5ffd5b506004361061003f575f3560e01c80637a24a2bd1461004357806399df5bbe14610073578063e7e23780146100a3575b5f5ffd5b61005d60048036038101906100589190610229565b6100d3565b60405161006a9190610334565b60405180910390f35b61008d600480360381019061008891906103a9565b61011e565b60405161009a9190610464565b60405180910390f35b6100bd60048036038101906100b89190610229565b61016c565b6040516100ca9190610493565b60405180910390f35b60608282808060200260200160405190810160405280939291908181526020018383602002808284375f81840152601f19601f82011690508083019250505050505050905092915050565b606082828080601f0160208091040260200160405190810160405280939291908181526020018383808284375f81840152601f19601f82011690508083019250505050505050905092915050565b5f5f5f90505f5f90505b848490508110156101b557848482818110610194576101936104ac565b5b90506020020135826101a69190610506565b91508080600101915050610176565b508091505092915050565b5f5ffd5b5f5ffd5b5f5ffd5b5f5ffd5b5f5ffd5b5f5f83601f8401126101e9576101e86101c8565b5b8235905067ffffffffffffffff811115610206576102056101cc565b5b602083019150836020820283011115610222576102216101d0565b5b9250929050565b5f5f6020838503121561023f5761023e6101c0565b5b5f83013567ffffffffffffffff81111561025c5761025b6101c4565b5b610268858286016101d4565b92509250509250929050565b5f81519050919050565b5f82825260208201905092915050565b5f819050602082019050919050565b5f819050919050565b6102af8161029d565b82525050565b5f6102c083836102a6565b60208301905092915050565b5f602082019050919050565b5f6102e282610274565b6102ec818561027e565b93506102f78361028e565b805f5b8381101561032757815161030e88826102b5565b9750610319836102cc565b9250506001810190506102fa565b5085935050505092915050565b5f6020820190508181035f83015261034c81846102d8565b905092915050565b5f5f83601f840112610369576103686101c8565b5b8235905067ffffffffffffffff811115610386576103856101cc565b5b6020830191508360018202830111156103a2576103a16101d0565b5b9250929050565b5f5f602083850312156103bf576103be6101c0565b5b5f83013567ffffffffffffffff8111156103dc576103db6101c4565b5b6103e885828601610354565b92509250509250929050565b5f81519050919050565b5f82825260208201905092915050565b8281835e5f83830152505050565b5f601f19601f8301169050919050565b5f610436826103f4565b61044081856103fe565b935061045081856020860161040e565b6104598161041c565b840191505092915050565b5f6020820190508181035f83015261047c818461042c565b905092915050565b61048d8161029d565b82525050565b5f6020820190506104a65f830184610484565b92915050565b7f4e487b71000000000000000000000000000000000000000000000000000000005f52603260045260245ffd5b7f4e487b71000000000000000000000000000000000000000000000000000000005f52601160045260245ffd5b5f6105108261029d565b915061051b8361029d565b9250828201905080821115610533576105326104d9565b5b9291505056fea2646970667358221220b1d477420d6ecb42e9b3aa6cc8c70c7ed523bf0d1f33373f976a0e449d7348f864736f6c634300081e0033","linkReferences":{}},"methodIdentifiers":{"echoMessage(string)":"99df5bbe","modifyArray(uint256[])":"7a24a2bd","processArray(uint256[])":"e7e23780"},"id":25}