{"abi":[{"type":"function","name":"echoMessage","inputs":[{"name":"message","type":"string","internalType":"string"}],"outputs":[{"name":"","type":"string","internalType":"string"}],"stateMutability":"pure"},{"type":"function","name":"processArray","inputs":[{"name":"inputArray","type":"uint256[]","internalType":"uint256[]"}],"outputs":[{"name":"","type":"uint256","internalType":"uint256"}],"stateMutability":"pure"}],"bytecode":{"object":"0x6080604052348015600e575f5ffd5b506104128061001c5f395ff3fe608060405234801561000f575f5ffd5b5060043610610034575f3560e01c806399df5bbe14610038578063e7e2378014610068575b5f5ffd5b610052600480360381019061004d91906101a3565b610098565b60405161005f919061025e565b60405180910390f35b610082600480360381019061007d91906102d3565b6100e6565b60405161008f9190610336565b60405180910390f35b606082828080601f0160208091040260200160405190810160405280939291908181526020018383808284375f81840152601f19601f82011690508083019250505050505050905092915050565b5f5f5f90505f5f90505b8484905081101561012f5784848281811061010e5761010d61034f565b5b905060200201358261012091906103a9565b915080806001019150506100f0565b508091505092915050565b5f5ffd5b5f5ffd5b5f5ffd5b5f5ffd5b5f5ffd5b5f5f83601f84011261016357610162610142565b5b8235905067ffffffffffffffff8111156101805761017f610146565b5b60208301915083600182028301111561019c5761019b61014a565b5b9250929050565b5f5f602083850312156101b9576101b861013a565b5b5f83013567ffffffffffffffff8111156101d6576101d561013e565b5b6101e28582860161014e565b92509250509250929050565b5f81519050919050565b5f82825260208201905092915050565b8281835e5f83830152505050565b5f601f19601f8301169050919050565b5f610230826101ee565b61023a81856101f8565b935061024a818560208601610208565b61025381610216565b840191505092915050565b5f6020820190508181035f8301526102768184610226565b905092915050565b5f5f83601f84011261029357610292610142565b5b8235905067ffffffffffffffff8111156102b0576102af610146565b5b6020830191508360208202830111156102cc576102cb61014a565b5b9250929050565b5f5f602083850312156102e9576102e861013a565b5b5f83013567ffffffffffffffff8111156103065761030561013e565b5b6103128582860161027e565b92509250509250929050565b5f819050919050565b6103308161031e565b82525050565b5f6020820190506103495f830184610327565b92915050565b7f4e487b71000000000000000000000000000000000000000000000000000000005f52603260045260245ffd5b7f4e487b71000000000000000000000000000000000000000000000000000000005f52601160045260245ffd5b5f6103b38261031e565b91506103be8361031e565b92508282019050808211156103d6576103d561037c565b5b9291505056fea26469706673582212207bc56d0653fd7131413f25b83d6d27b6dd319dd4866632be3ec5d5e8f6330ceb64736f6c634300081e0033","linkReferences":{}},"methodIdentifiers":{"echoMessage(string)":"99df5bbe","processArray(uint256[])":"e7e23780"},"id":24}