{"abi":[{"type":"function","name":"a","inputs":[],"outputs":[{"name":"","type":"uint256","internalType":"uint256"}],"stateMutability":"view"},{"type":"function","name":"b","inputs":[],"outputs":[{"name":"","type":"uint256","internalType":"uint256"}],"stateMutability":"view"},{"type":"function","name":"c","inputs":[],"outputs":[{"name":"","type":"uint256","internalType":"uint256"}],"stateMutability":"view"},{"type":"function","name":"storageLayout","inputs":[],"outputs":[{"name":"a_slotValue","type":"bytes32","internalType":"bytes32"},{"name":"b_slotValue","type":"bytes32","internalType":"bytes32"},{"name":"c_slotValue","type":"bytes32","internalType":"bytes32"}],"stateMutability":"nonpayable"},{"type":"function","name":"x","inputs":[],"outputs":[{"name":"","type":"uint256","internalType":"uint256"}],"stateMutability":"view"},{"type":"function","name":"y","inputs":[],"outputs":[{"name":"","type":"uint8","internalType":"uint8"}],"stateMutability":"view"}],"bytecode":{"object":"0x608060405260085f5560015f54901c6001556003600154901b60025561010060035560035460045f6101000a81548160ff021916908360ff1602179055503480156047575f5ffd5b50610241806100555f395ff3fe608060405234801561000f575f5ffd5b5060043610610060575f3560e01c80630c55699c146100645780630dbe671f146100825780634df7e3d0146100a0578063a56dfe4a146100be578063b4c29064146100dc578063c3da42b8146100fc575b5f5ffd5b61006c61011a565b6040516100799190610171565b60405180910390f35b61008a610120565b6040516100979190610171565b60405180910390f35b6100a8610125565b6040516100b59190610171565b60405180910390f35b6100c661012b565b6040516100d391906101a5565b60405180910390f35b6100e461013d565b6040516100f3939291906101d6565b60405180910390f35b610104610153565b6040516101119190610171565b60405180910390f35b60035481565b5f5481565b60015481565b60045f9054906101000a900460ff1681565b5f5f5f5f54925060015491506002549050909192565b60025481565b5f819050919050565b61016b81610159565b82525050565b5f6020820190506101845f830184610162565b92915050565b5f60ff82169050919050565b61019f8161018a565b82525050565b5f6020820190506101b85f830184610196565b92915050565b5f819050919050565b6101d0816101be565b82525050565b5f6060820190506101e95f8301866101c7565b6101f660208301856101c7565b61020360408301846101c7565b94935050505056fea26469706673582212207223972cbcfab6986d591beacee051ea478ca10235daececc323a1156d43a90764736f6c634300081e0033","linkReferences":{}},"methodIdentifiers":{"a()":"0dbe671f","b()":"4df7e3d0","c()":"c3da42b8","storageLayout()":"b4c29064","x()":"0c55699c","y()":"a56dfe4a"},"id":20}