{"abi":[{"type":"function","name":"myString","inputs":[],"outputs":[{"name":"","type":"string","internalType":"string"}],"stateMutability":"view"},{"type":"function","name":"num","inputs":[],"outputs":[{"name":"","type":"uint256","internalType":"uint256"}],"stateMutability":"view"},{"type":"function","name":"the31BytesString","inputs":[],"outputs":[{"name":"content","type":"bytes32","internalType":"bytes32"}],"stateMutability":"nonpayable"},{"type":"function","name":"the31PlusBytesString","inputs":[],"outputs":[{"name":"slot","type":"bytes32","internalType":"bytes32"},{"name":"content","type":"bytes32","internalType":"bytes32"}],"stateMutability":"nonpayable"}],"bytecode":{"object":"0x6080604052348015600e575f5ffd5b506106508061001c5f395ff3fe608060405234801561000f575f5ffd5b506004361061004a575f3560e01c80633f1b5b2e1461004e578063492bfa181461006c5780634e70b1dc1461008a578063b59d4222146100a8575b5f5ffd5b6100566100c7565b60405161006391906101f0565b60405180910390f35b610074610113565b6040516100819190610279565b60405180910390f35b61009261019e565b60405161009f91906102b1565b60405180910390f35b6100b06101a4565b6040516100be9291906102ca565b60405180910390f35b5f6040518060400160405280601f81526020017f4c6561726e696e672059756c206665656c73206d656d6f727920686572652e008152505f908161010b919061051b565b505f54905090565b5f805461011f9061034b565b80601f016020809104026020016040519081016040528092919081815260200182805461014b9061034b565b80156101965780601f1061016d57610100808354040283529160200191610196565b820191905f5260205f20905b81548152906001019060200180831161017957829003601f168201915b505050505081565b60015481565b5f5f6040518060600160405280603081526020016105eb603091395f90816101cc919061051b565b505f91505f5490509091565b5f819050919050565b6101ea816101d8565b82525050565b5f6020820190506102035f8301846101e1565b92915050565b5f81519050919050565b5f82825260208201905092915050565b8281835e5f83830152505050565b5f601f19601f8301169050919050565b5f61024b82610209565b6102558185610213565b9350610265818560208601610223565b61026e81610231565b840191505092915050565b5f6020820190508181035f8301526102918184610241565b905092915050565b5f819050919050565b6102ab81610299565b82525050565b5f6020820190506102c45f8301846102a2565b92915050565b5f6040820190506102dd5f8301856101e1565b6102ea60208301846101e1565b9392505050565b7f4e487b71000000000000000000000000000000000000000000000000000000005f52604160045260245ffd5b7f4e487b71000000000000000000000000000000000000000000000000000000005f52602260045260245ffd5b5f600282049050600182168061036257607f821691505b6020821081036103755761037461031e565b5b50919050565b5f819050815f5260205f209050919050565b5f6020601f8301049050919050565b5f82821b905092915050565b5f600883026103d77fffffffffffffffffffffffffffffffffffffffffffffffffffffffffffffffff8261039c565b6103e1868361039c565b95508019841693508086168417925050509392505050565b5f819050919050565b5f61041c61041761041284610299565b6103f9565b610299565b9050919050565b5f819050919050565b61043583610402565b61044961044182610423565b8484546103a8565b825550505050565b5f5f905090565b610460610451565b61046b81848461042c565b505050565b5b8181101561048e576104835f82610458565b600181019050610471565b5050565b601f8211156104d3576104a48161037b565b6104ad8461038d565b810160208510156104bc578190505b6104d06104c88561038d565b830182610470565b50505b505050565b5f82821c905092915050565b5f6104f35f19846008026104d8565b1980831691505092915050565b5f61050b83836104e4565b9150826002028217905092915050565b61052482610209565b67ffffffffffffffff81111561053d5761053c6102f1565b5b610547825461034b565b610552828285610492565b5f60209050601f831160018114610583575f8415610571578287015190505b61057b8582610500565b8655506105e2565b601f1984166105918661037b565b5f5b828110156105b857848901518255600182019150602085019450602081019050610593565b868310156105d557848901516105d1601f8916826104e4565b8355505b6001600288020188555050505b50505050505056fe492062726561746820426c6f636b636861696e2c20736f6c696469747920616e64207370656361696c6c792059756c2ea26469706673582212209cb73fdd9dccfc2fae23f92e5fac5a68ed26ec415bdd9d52368400add9877fa264736f6c634300081e0033","linkReferences":{}},"methodIdentifiers":{"myString()":"492bfa18","num()":"4e70b1dc","the31BytesString()":"3f1b5b2e","the31PlusBytesString()":"b59d4222"},"id":25}