{"abi":[{"type":"function","name":"myString","inputs":[],"outputs":[{"name":"","type":"string","internalType":"string"}],"stateMutability":"view"},{"type":"function","name":"num","inputs":[],"outputs":[{"name":"","type":"uint256","internalType":"uint256"}],"stateMutability":"view"},{"type":"function","name":"the31BytesString","inputs":[],"outputs":[{"name":"content","type":"bytes32","internalType":"bytes32"}],"stateMutability":"nonpayable"}],"bytecode":{"object":"0x6080604052348015600e575f5ffd5b5061059b8061001c5f395ff3fe608060405234801561000f575f5ffd5b506004361061003f575f3560e01c80633f1b5b2e14610043578063492bfa18146100615780634e70b1dc1461007f575b5f5ffd5b61004b61009d565b6040516100589190610192565b60405180910390f35b6100696100e9565b604051610076919061021b565b60405180910390f35b610087610174565b6040516100949190610253565b60405180910390f35b5f6040518060400160405280601f81526020017f4c6561726e696e672059756c206665656c73206d656d6f727920686572652e008152505f90816100e19190610496565b505f54905090565b5f80546100f5906102c6565b80601f0160208091040260200160405190810160405280929190818152602001828054610121906102c6565b801561016c5780601f106101435761010080835404028352916020019161016c565b820191905f5260205f20905b81548152906001019060200180831161014f57829003601f168201915b505050505081565b60015481565b5f819050919050565b61018c8161017a565b82525050565b5f6020820190506101a55f830184610183565b92915050565b5f81519050919050565b5f82825260208201905092915050565b8281835e5f83830152505050565b5f601f19601f8301169050919050565b5f6101ed826101ab565b6101f781856101b5565b93506102078185602086016101c5565b610210816101d3565b840191505092915050565b5f6020820190508181035f83015261023381846101e3565b905092915050565b5f819050919050565b61024d8161023b565b82525050565b5f6020820190506102665f830184610244565b92915050565b7f4e487b71000000000000000000000000000000000000000000000000000000005f52604160045260245ffd5b7f4e487b71000000000000000000000000000000000000000000000000000000005f52602260045260245ffd5b5f60028204905060018216806102dd57607f821691505b6020821081036102f0576102ef610299565b5b50919050565b5f819050815f5260205f209050919050565b5f6020601f8301049050919050565b5f82821b905092915050565b5f600883026103527fffffffffffffffffffffffffffffffffffffffffffffffffffffffffffffffff82610317565b61035c8683610317565b95508019841693508086168417925050509392505050565b5f819050919050565b5f61039761039261038d8461023b565b610374565b61023b565b9050919050565b5f819050919050565b6103b08361037d565b6103c46103bc8261039e565b848454610323565b825550505050565b5f5f905090565b6103db6103cc565b6103e68184846103a7565b505050565b5b81811015610409576103fe5f826103d3565b6001810190506103ec565b5050565b601f82111561044e5761041f816102f6565b61042884610308565b81016020851015610437578190505b61044b61044385610308565b8301826103eb565b50505b505050565b5f82821c905092915050565b5f61046e5f1984600802610453565b1980831691505092915050565b5f610486838361045f565b9150826002028217905092915050565b61049f826101ab565b67ffffffffffffffff8111156104b8576104b761026c565b5b6104c282546102c6565b6104cd82828561040d565b5f60209050601f8311600181146104fe575f84156104ec578287015190505b6104f6858261047b565b86555061055d565b601f19841661050c866102f6565b5f5b828110156105335784890151825560018201915060208501945060208101905061050e565b86831015610550578489015161054c601f89168261045f565b8355505b6001600288020188555050505b50505050505056fea2646970667358221220317cc923b65ce240047f156d0447ab2cf30ec47c54efe4f5e50f2b93375298b364736f6c634300081e0033","linkReferences":{}},"methodIdentifiers":{"myString()":"492bfa18","num()":"4e70b1dc","the31BytesString()":"3f1b5b2e"},"id":24}