{"abi":[{"type":"function","name":"EncodeWithSelector","inputs":[],"outputs":[{"name":"","type":"bytes","internalType":"bytes"}],"stateMutability":"view"}],"bytecode":{"object":"0x608060405273f62849f9a0b5bf2913b396098f7c7019b51a820a5f5f6101000a81548173ffffffffffffffffffffffffffffffffffffffff021916908373ffffffffffffffffffffffffffffffffffffffff1602179055503480156061575f5ffd5b506102758061006f5f395ff3fe608060405234801561000f575f5ffd5b5060043610610029575f3560e01c8063a79faabc1461002d575b5f5ffd5b61003561004b565b6040516100429190610163565b60405180910390f35b606063a9059cbb60e01b5f5f9054906101000a900473ffffffffffffffffffffffffffffffffffffffff16683635c9adc5dea00000604051602401610091929190610218565b604051602081830303815290604052907bffffffffffffffffffffffffffffffffffffffffffffffffffffffff19166020820180517bffffffffffffffffffffffffffffffffffffffffffffffffffffffff8381831617835250505050905090565b5f81519050919050565b5f82825260208201905092915050565b8281835e5f83830152505050565b5f601f19601f8301169050919050565b5f610135826100f3565b61013f81856100fd565b935061014f81856020860161010d565b6101588161011b565b840191505092915050565b5f6020820190508181035f83015261017b818461012b565b905092915050565b5f73ffffffffffffffffffffffffffffffffffffffff82169050919050565b5f6101ac82610183565b9050919050565b6101bc816101a2565b82525050565b5f819050919050565b5f68ffffffffffffffffff82169050919050565b5f819050919050565b5f6102026101fd6101f8846101c2565b6101df565b6101cb565b9050919050565b610212816101e8565b82525050565b5f60408201905061022b5f8301856101b3565b6102386020830184610209565b939250505056fea26469706673582212207672d5e53d82953cde7850ca5b94579e4e1e7d3a539f2064897f9b1a8049a96364736f6c634300081e0033","linkReferences":{}},"methodIdentifiers":{"EncodeWithSelector()":"a79faabc"},"id":26}